:020000040800F2
:10000000A008002001010008FB3C0008512F000857
:10001000F93C0008F90A00089143000800000000BC
:10002000000000000000000000000000B33D0008D8
:100030003F0B0008000000005D3D0008393E00084D
:100040001B0100081B0100081B0100081B01000820
:100050001B0100081B0100081B0100081B01000810
:100060001B0100081B0100081B010008FD0A000815
:100070001B010008090B00081B0100081B010008F8
:100080001B0100081B0100081B0100081B010008E0
:100090001B0100081B0100081B0100081B010008D0
:1000A0001B0100081B0100081B0100081B010008C0
:1000B000CD3E00081B0100081B0100081B010008C1
:1000C0001B0100081B0100081B0100081B010008A0
:1000D0001B0100081B0100081B01000885430008E4
:1000E000410B00081B0100081B010008DFF80CD0C1
:1000F00000F0CAFC004800476D540008A00800202A
:100100000648804706480047FEE7FEE7FEE7FEE7B1
:10011000FEE7FEE7FEE7FEE7FEE7FEE7C93E000872
:10012000ED000008202A04DB203A21FA02F0002129
:10013000704721FA02F3D040C2F1200291400843F7
:100140001946704740EA01039B0703D009E008C93C
:10015000121F08C0042AFAD203E011F8013B00F88C
:10016000013B521EF9D27047D2B201E000F8012BD8
:10017000491EFBD270470022F6E710B513460A4627
:1001800004461946FFF7F0FF204610BDF0B480EAA0
:100190000102D40F4200B2EB410F02D202460846E0
:1001A00011464A0042D0C30DDDB2C1F3C752AD1AA9
:1001B000202D35DAC1F3160141F4000204B1524298
:1001C000C5F1200602FA06F12A411044B3EBD05FD4
:1001D00023D0C4B1012DA0EBC35009DCF0BC4FF01B
:1001E000004202EAC352DBB200F5000000F057BB48
:1001F000400000F1807000EBC350A0F1807040EA35
:10020000D170490009E0490841EAC071A0EBC35030
:1002100000F50000400800EBC350F0BC00F036BB16
:100220006142012202EB4101001BF6E7F0BC70477E
:1002300081F00041AAE780F00040A7E730B480EAEF
:10024000010202F0004530F0004221F0004013D0DE
:1002500090B1C30DD40DC2F31601C0F31600E41A19
:1002600041F4000140F400027D34914201D3641C4A
:1002700000E04900002C02DA30BC002070474FF447
:1002800000000023914201D3891A034340084FEA3A
:100290004101F7D151B1914202D14FF0004105E047
:1002A00002D24FF0010101E06FF0010103EBC450F5
:1002B000284430BC00F0EABA420005D0C0F3C7526F
:1002C0005242914201DC0020704700EBC150704760
:1002D0002DE9FE4F804681EA0300C00F0C460090D6
:1002E00021F0004123F00045B8EB0200A94105D2FE
:1002F0004046214690461C460B46024623F00040ED
:10030000104347D0270DC7F30A00C3F30A510290E8
:10031000401A019040286BDAC3F3130040F4801BAD
:100320000098924620B10023D2EB030A63EB0B0B3B
:1003300001985946C0F14002504600F086FA064640
:100340000D4650465946019A00F08EFA10EB08000F
:100350006141002487EA115284EAE7731A4340D0CE
:10036000009A62B3019A012A4FEA075215DC001B7A
:1003700061EB02014FF0004202EA0752CDE9004270
:10038000001C41F5801132462B4600F0C5FA03B03F
:10039000BDE8F08F40462146F9E7001B61EB020102
:1003A000001C41F5801300185B412018A2F50017CE
:1003B00047EB030140EAD570B6196D4111E06D08B5
:1003C0004FEA360645EAC0754FEA0752001B61EB5B
:1003D0000201001C41F5801149084FEA3000001964
:1003E000514132462B4603B0BDE8F04F00F085BACC
:1003F0000098012240000023D0EB020263EBE0737F
:10040000009821464FEAE074B8EB000061EB04016C
:10041000E9E783F000435BE781F0004158E72DE90D
:10042000FE4F81EA030404F0004421F000410094EF
:100430004FF0000B23F0004350EA01045ED052EA73
:1004400003045BD0C3F30A54C1F30A552C44A4F24D
:10045000F3340194A0FB0254C1F3130141F4801161
:10046000C3F3130343F4801301FB024400FB034E68
:10047000840A970A44EA815447EA8357A4FB076831
:1004800002958D0A05FB07854FEA932C04FB0C545B
:100490002705029D4FEA065847EA1637B5EB0805CF
:1004A0006EEB070C870E920E47EA811742EA831221
:1004B000A7FB0201B6EB0B0164EB00042B0D43EA32
:1004C0000C335E1844EB1C50DA465146E7FB020140
:1004D000C5F313044FEA0B3343EA14534FEA0432D3
:1004E000019C43EA0603A4F10C040294009CCDE9AC
:1004F00000B400F011FA03B0BDE8F08F002001460F
:10050000F9E72DE9F04D81EA030404F0004B21F0F6
:10051000004514464FF0000A23F0004150EA05025E
:1005200020D054EA01021DD0C5F30A570246C5F394
:100530001303C1F31300C1F30A5640F4801543F4CA
:100540008013A7EB0608101BD64608F2FD3873EBA4
:10055000050002D308F1010801E092185B41B8F1EF
:10056000000F03DA00200146BDE8F08D00204FF4B3
:100570008011064684460EE0171B73EB050705D372
:10058000121B63EB050306434CEA010C49084FEAD2
:10059000300092185B4150EA0107EDD152EA0300A6
:1005A00012D082EA040083EA0501084305D0101B3B
:1005B000AB4106D20122002306E000224FF00043A7
:1005C00002E06FF0010253101AEB06004CEB0851E9
:1005D00010EB0A0041EB0B01BDE8F04D00F08DB9C6
:1005E00070B521F0004303430CD0C1F30A55002439
:1005F000D5EB040564EB0403D617AD1AB34102DB57
:100600000020014670BD201841EB025170BDC10FA2
:1006100080EAE0700844CA079623002100F03FB941
:1006200096230022114600F03AB90EB5C10F80EAB8
:10063000E0700844CA07002140F233438DE80E0001
:100640000A460B4600F068F903B000BD0EB540F253
:10065000334102910021CDE900110A460B4600F01A
:100660005BF903B000BD70B5C1F30A5201F000455B
:100670000024C1F3130140F2FF3341F480119A4288
:1006800001DA002070BD40F233439A42A2F23342B5
:1006900003DC5242FFF746FD00E090402C43F1D0CE
:1006A000404270BDC1F30A5210B5C1F3130140F2CC
:1006B000FF3341F480119A4201DA002010BD40F26C
:1006C00033439A42A2F2334203DC5242FFF72AFD3F
:1006D00010BD904010BD00F0004230F000400AD044
:1006E000C10D01F56071C0F3160042EA0151C20864
:1006F00040071143704700200146704730B5041E83
:1007000071F1000404DB4FF00044404264EB01014E
:10071000141E73F1000405DB1C464FF000435242E7
:1007200063EB04038B4208BF824230BD30B5041E28
:1007300071F1000404DB4FF00044404264EB01011E
:10074000141E73F1000405DB1C464FF000435242B7
:1007500063EB0403994208BF904230BD01F00043AF
:1007600030B421F0004150EA010206D00A0DA2F592
:100770006072C1F31301002A02DC30BC0020704714
:10078000440F44EAC104C100E01830BC00EBC25081
:1007900000F07CB8002801DBC0F10040002901DB3B
:1007A000C1F1004181427047002801DBC0F10040E7
:1007B000002901DBC1F100418842704730B50B468A
:1007C000014600202022012409E021FA02F59D4281
:1007D00005D303FA02F5491B04FA02F52844151E55
:1007E000A2F10102F1DC30BD2DE9F05F05460020E9
:1007F00092469B4688460646814640241BE0284692
:10080000414647462246FFF78DFC53465A46C01ADA
:10081000914110D311461846224600F016F82D1AC1
:1008200067EB01084F4622460120002100F00DF839
:1008300017EB00094E41201EA4F10104DFDC4846FD
:1008400031462A464346BDE8F09F202A04DB203A81
:1008500000FA02F1002070479140C2F1200320FA13
:1008600003F3194390407047202A06DBCB17203A48
:1008700041FA02F043EAE07306E041FA02F3D040A5
:10088000C2F1200291400843194670470029A8BFD1
:100890007047401C490008BF20F00100704710B4A9
:1008A000B0FA80FC00FA0CF050EA010404BF10BC5E
:1008B000704749B1CCF1200421FA04F411FA0CF18B
:1008C00018BF012121430843A3EB0C01CB1D4FEAC4
:1008D00000614FEA102042BF002010BC704700EBBF
:1008E000C35010440029A4BF10BC7047401C4900ED
:1008F00008BF20F0010010BC704710B5141E73F142
:10090000000408DA401C41F1000192185B411A43CF
:1009100001D120F0010010BD2DE9F04D92469B461B
:1009200011B1B1FA81F202E0B0FA80F220329046C1
:10093000FFF78BFF04460F4640EA0A0041EA0B012D
:1009400053465A46084313D0114653EA010019D0C2
:10095000C8F140025046FFF7E5FB05460E465046FB
:1009600059464246FFF771FF084305D0012004E0D5
:1009700020463946BDE8F08D0020054346EAE07682
:100980002C4337430A986305E40AA0EB08000022D1
:10099000FD0A44EA47540A3002D500200146E9E73F
:1009A000010510196941DDE9084500196941BDE8F3
:1009B000F04DA2E72DE9F04D00231A461B1A8A419B
:1009C00003DB00200146BDE8F08DC1F30A52C1F3FC
:1009D000130141F480154FF0000BD10702D100182C
:1009E0006D41521E0027044640F2FF11384601EBCC
:1009F000620A3E468046024600204FF48011FFF70F
:100A000091FBC2197141BB1846EB0100B4EB030C1A
:100A100075EB000C04D3E41A65EB000517460E468F
:100A2000241908F101006D4180463428E3DDF919ED
:100A300046EB0600091BA84103D24FF0FF321346D4
:100A400001E0002213461BEB070046EB0A51BDE80C
:100A5000F04DFFF752BFC1F30A52C1F3130140F248
:100A6000FF3341F480119A4202DA002001467047B8
:100A700040F233439A42A2F2334202DC5242FFF781
:100A800051BBFFF7E2BE0000064C074D06E0E068F0
:100A900040F0010394E8070098471034AC42F6D3C5
:100AA000FFF728FBA05E0008C05E000870B5044692
:100AB00000688168C943C9071CD1816821F0010120
:100AC000816000F04FFC05460FE000BF00F04AFCDB
:100AD000401B022809D9A06A40F01000A062E06A19
:100AE00040F00100E062012070BD20688068C043D2
:100AF000C007EBD0002070BDFEE70000014800F009
:100B0000DBB9000058040020014800F0D5B900000E
:100B1000BC03002030B590F840500124AC40C56BB8
:100B20006C60046863604368102B036803D09960AD
:100B30000068C26030BD9A600068C16030BD704717
:100B40004FF4005000F004BB01A003F023BC0000F0
:100B50005B53595354454D5D204572726F7221208D
:100B6000506C6561736520636F6E746163742056A9
:100B7000696E63656E740D0A00000000F8B500240C
:100B8000009490F824202546012A12D0012280F8F2
:100B900024204A681F23072A0DD20668776B521E4D
:100BA00002EB820293409F430B6893401F4377639D
:100BB00019E00220F8BD06680D2A0AD2376BD21F51
:100BC00002EB820293409F430B6893401F433763BD
:100BD00009E0F76A0D3A02EB820293409F430B68EB
:100BE00093401F43F7620A68072306680A2A0AD35C
:100BF000F7680A3A02EB420293409F438B689340A6
:100C00001F43F76008E0376902EB420293409F43BD
:100C10008B6893401F4337610A68102A01D0112A5C
:100C200020D1124B02689A4217D193681B0219D443
:100C3000936843F4000393600968102912D10C49AA
:100C40000C4A0968B1FBF2F101EB8101490000E0B7
:100C5000491E00910029FBD104E0816A41F0200186
:100C60008162012480F824502046F8BD0024014010
:100C70000C01002040420F002DE9F0414FF0000729
:100C800004003D467ED0A06A002628B9E66284F8BA
:100C90002460204600F07EF82046FFF707FFA16A97
:100CA000C90600D420B1A06A40F01000A06269E03B
:100CB000A16A21F4885141F00201A1626268E169F0
:100CC000237B0A4347EA43010A43A1684FF4807734
:100CD000B94209D0012907D05FF0000194F814C08F
:100CE000BCF1010F02D00AE03946F7E7F3B1A36A7D
:100CF00043F02003A362E36A43F00103E362236845
:100D0000D3F804C02CF4694C4CEA010CC3F804C0BD
:100D100021688B68DFF870C003EA0C0313438B6013
:100D2000A168B9420BD0012909D00CE0DFF85CC002
:100D3000A3690CEB43330B4343F40061DFE7218AE3
:100D40000D05A5F580152168CB6A23F470032B43AC
:100D5000CB62216889680E4B1940914208D1E66246
:100D6000A16A21F0020141F00101A162BDE8F08118
:100D7000A06A20F0020040F01000A062E06A40F09B
:100D80000100E0620120F1E7FDF7E1FF00E0FFFF75
:100D9000FE0E1FFF70B586B0002506460095019532
:100DA000029503950068194988422DD11849886930
:100DB00040F400708861886900F4007004908869CC
:100DC00040F0040088618869694600F004000490DE
:100DD0000320009001900F4800F0C6F90F4C0E4818
:100DE000C4E900058020C4E9025080002061800031
:100DF00060612020C4E90605204600F007F908B12B
:100E0000FFF7A2FE3462666206B070BD00240140A6
:100E10000010024000080140080002405804002071
:100E200010B590F821100024022903D00421816319
:100E300001243DE001680A6822F00E020A600168A0
:100E40000A6822F001020A601A4A0168914201D13F
:100E5000012121E0174A1432914201D110211BE0F7
:100E6000144A2832914201D1891515E0114A3C32C9
:100E7000914201D189140FE00E4A5032914202D1C1
:100E80004FF4803108E00B4A6432914202D14FF4B2
:100E9000801101E04FF08071064A083A516001214B
:100EA00080F82110002180F82010416B01B18847A3
:100EB000204610BD080002402DE9F05FC16B0C68B0
:100EC00001680B68D0F840C0042202FA0CF2494DC8
:100ED000DFF824A1494E4A4FDFF828B1DFF828E1B6
:100EE00022422CD05A072AD50A68920603D40A68EF
:100EF00022F004020A600168A94201D1042219E02B
:100F0000514501D1402215E0B14202D14FF4806237
:100F100010E0B94202D14FF480420BE0594502D1B2
:100F20004FF4802206E0714502D14FF4800201E0C7
:100F30004FF080622F4908394A60C16A3BE04FF0A8
:100F4000020808FA0CF818EA040F4FF000094FF0F5
:100F5000010235D05FEA837832D50B689B0605D451
:100F60000B6823F00A030B6080F821200168A94276
:100F700001D1022219E0514501D1202215E0B142F0
:100F800002D14FF4007210E0B94202D14FF4005286
:100F90000BE0594502D14FF4003206E0714502D111
:100FA0004FF4001201E04FF00072124908394A6014
:100FB00080F82090816A00291AD0BDE8F05F0847C8
:100FC000082505FA0CF5254212D01B0710D50B6831
:100FD00023F00E030B6090F84010C36B02FA01F18E
:100FE0005960826380F8212080F82090016BE2E74D
:100FF000BDE8F09F080002401C00024030000240A3
:1010000044000240580002406C00024030B528B352
:1010100008C8134914221944B1FBF2F18900C163D5
:1010200010498163022141771A6843F6F0718A43BF
:10103000D0E900142143D0E902452C43214304693F
:1010400021434469214384692143114319600021EC
:101050004163012242770177084630BD012030BD4F
:10106000F8FFFDBF0000024070B5044690F8200074
:10107000002501280CD0012084F8200094F821607C
:101080000020012E06D084F820000225284670BDDD
:10109000022070BD022684F82160A06320680668E3
:1010A00026F0010606602046FFF734FDE06A0028BE
:1010B0002068016802D041F00E0106E021F0040131
:1010C00001602068016841F00A0101602068016840
:1010D00041F001010160D9E770B5044600F042F922
:1010E0000546601C02D004480078044400F03AF938
:1010F000401BA042FAD370BD0001002070B5B0F5CE
:10110000005F1FD1104D00220121284600F024F974
:1011100000220221284600F01FF9002004F010F8F8
:101120000A4C2168486300220421284600F014F983
:1011300000220821284600F00FF9002004F000F8F2
:101140002168886370BD0000001001401C0200206F
:10115000044910B50A68024202D00860FFF7CEFFCA
:1011600010BD0000140401402DE9F84FDFF8B891DC
:10117000002409F1040A0AF1040B23460F270BF19E
:10118000040EC9E00125A5402A40AA427DD1674E40
:10119000D1F804C0ACEB0608B44532D014DCBCF185
:1011A000030F3AD009DCBCF1000F2AD0BCF1010FCB
:1011B0001CD0BCF1020F31D11DE0BCF1110F17D0D2
:1011C000BCF1120F2AD119E0B8F5881F19D006DC3E
:1011D000B8F5803F15D0B8F5801F1FD111E0B8F5E4
:1011E000001F0ED0B8F5041F18D10AE0CB6815E037
:1011F000CB681B1D12E0CB6808330FE0CB680C33C3
:101200000CE08B682BB1012B4FF0080303D0456134
:1012100004E0042302E0056100E00023FF2A01D876
:10122000064601E000F104064FEA840501D9A5F164
:101230002005D6F8008007FA05FC28EA0C0803FA16
:1012400005F548EA0508C6F800804D68ED0062D54E
:10125000374DAE6946F00106AE61AD6924F0030674
:1012600005F001050095334D06EB050CDCF8085040
:10127000A607360F07FA06F825EA0805DFF8B88052
:10128000404503D14FF0000817E044E0DFF8AC80A0
:10129000404502D14FF001080FE0DFF8A48040453F
:1012A00002D14FF0020808E0DFF89880404502D1F3
:1012B0004FF0030801E04FF0040808FA06F848EA86
:1012C0000508CCF808804D68D9F80060ED034D465C
:1012D00001D5164300E096432E604D68DAF80060B1
:1012E000AD03554601D5164300E096432E604D6888
:1012F000DBF80060ED025D4601D5164300E0964341
:101300002E604D68DEF80060AD02754601D51643CB
:1013100000E096432E60641C0D682A46E5407FF489
:1013200031AFBDE8F88F000000040140000011104B
:10133000001002400000014000080140000C014084
:101340000010014000140140C26821EA02030A4073
:1013500043EA0241016170470AB101617047090423
:10136000FBE7000001488068704700000001002092
:1013700070B5040025D094F83D00002520B984F80C
:101380003C50204600F098FB242084F83D00206863
:10139000016821F0010101602068016841F4004109
:1013A00001602068016821F40041016000F0A6FDA1
:1013B0004D4A6168914201D84C4900E04C4988424D
:1013C00001D2012070BD4B492368B0FBF1F15E688A
:1013D00026F03F060E435E606368934206D94FF4E1
:1013E000967359434FF47A73B1FBF3F12368491CA8
:1013F0001E6A26F03F06314319626168914210D897
:101400004900401EB0FBF1F2521CC2F30B02042A49
:1014100001D2042022E0B0FBF1F0401CC0F30B002D
:101420001CE0A268F2B301EBC10303EB0116431EFB
:10143000B3FBF6F35B1C43F480431B0549D092B326
:1014400001EBC10202EB0111401EB0FBF1F0401CA8
:10145000C0F30B0040F4804040F400402168CA69AA
:101460004CF6FF739A431043C861D4E90710014357
:101470002068026822F0C00211430160D4E9030130
:1014800001432068826848F2FF339A431143816028
:10149000D4E9050108432168CA6822F0FF0210431D
:1014A000C86001E00EE016E02068016841F001012B
:1014B00001602564202084F83D00256384F83E50B7
:1014C000002070BD01EB4106431EB3FBF6F35B1C2D
:1014D000B3E70120C2E701EB4101401EB0FBF1F090
:1014E000401CC0F30B00B7E7A086010080841E00FB
:1014F00000093D0040420F002DE9F84F0025DDF8BE
:101500002890984617468A4604460095FFF72AFF1A
:10151000064694F83D0020287AD1192301228349F8
:101520002046009601F094FE0028F5D194F83C0086
:1015300001286DD0012084F83C0020680168C907AB
:1015400003D1016841F0010101602068016821F4C4
:1015500000610160222084F83D00102084F83E00E4
:1015600025646762A4F82A80608D20857048E06257
:1015700033464A465146204601F002FD00287DD1FF
:10158000208DDFF8B081202768B1012814D002280F
:10159000206801681ED041F48061016020684169C3
:1015A00080690090B5E02068416981690091016817
:1015B00041F400710160ACE02068016821F48061B1
:1015C000016072B62068416981690091016841F447
:1015D00000710AE041F40061016072B6206841695F
:1015E00081690091016821F48061016062B690E038
:1015F000032868D801280CD002284B464FF000027F
:101600004146204600960FD001F022FEB0BB10E00C
:101610008AE032464946204601F099FE70BB2068B8
:101620000069616A08706BE001F012FE30BB72B6AF
:1016300034E02068016821F48061016072B620689E
:101640000069616A0870606A401C6062208D401EFB
:101650002085608D401E6085374846F2A8110068DD
:10166000B0FBF1F0C0EBC00000EB80000090401E2A
:10167000009008D020684069C04300E029E040079E
:101680000CD50098F3E744F8305F6773A5732069C1
:1016900040F02000206162B625731AE020680168DE
:1016A00041F40071016020680069616A0870606A35
:1016B000401C6062218D491E2185618D491E618516
:1016C00062B621681AE032464946204601F03FFEE4
:1016D00010B10120BDE8F88F20680069616A0870C8
:1016E000606A401C6062218D491E2185618D491E02
:1016F000618521684A69D24352070AD40969017099
:10170000606A401C6062208D401E2085608D401EF6
:101710006085208D00287FF46BAF84F83D7084F8DD
:101720003E5084F83C50D5E70220D3E70200100079
:101730000000FFFF040001000C0100202DE9F84F1C
:101740001F4690468A460446DDF82890FFF70AFEB9
:10175000054694F83D0020287FD1192301224049F5
:101760002046009501F074FD002876D194F83C00E5
:10177000012872D0012084F83C0020680168C90764
:1017800003D1016841F0010101602068016821F482
:1017900000610160212084F83D00102084F83E00A3
:1017A00000262664C4F824806785608D20852D4836
:1017B000E0622B464A465146204601F057FC90B95C
:1017C000206841698069009036E02A4649462046F3
:1017D00001F0F0FD50B1206C042804D120680168AC
:1017E00041F4007101600120BDE8F88F606A216852
:1017F00000780861606A401C6062618D491E6185E5
:10180000218D491E89B2218522685369DB435B071C
:101810000BD451B100781061606A401C6062608D29
:10182000401E6085208D401E20852A464946204660
:1018300001F0E8FC0028CED1208D0028C5D154F855
:101840003D0B016841F400710160202004F81E097D
:10185000E67766770020C7E7FFE70220C4E70000CD
:10186000020010000000FFFF2DE9FF4F83B00025AC
:10187000DDE910799A4693460446DDF848800095E4
:10188000FFF770FD064694F83D0020287CD119230F
:10189000012285492046009601F0DAFC0028F5D1A6
:1018A00094F83C0001286FD0012084F83C002068A7
:1018B0000168C90703D1016841F001010160206896
:1018C000016821F400610160222084F83D0040207D
:1018D00084F83E0025646762A4F82A90608D208514
:1018E0007248E062CDE9008653465A462046049984
:1018F00001F00AFC00287DD1208DDFF8B49120276B
:1019000068B1012814D00228206801681ED041F473
:10191000806101602068416980690090B6E02068BC
:10192000416981690091016841F400710160ADE095
:101930002068016821F48061016072B62068416905
:1019400081690091016841F400710AE041F400618D
:10195000016072B62068416981690091016821F4D3
:101960008061016062B691E0032868D801280CD03C
:10197000022843464FF000024946204600960FD009
:1019800001F066FCB0BB10E08BE0324641462046D9
:1019900001F0DDFC70BB20680069616A08706CE0D2
:1019A00001F056FC30BB72B634E02068016821F4C7
:1019B0008061016072B620680069616A0870606ABF
:1019C000401C6062208D401E2085608D401E608519
:1019D000384846F2A8110068B0FBF1F0C0EBC00037
:1019E00000EB80000090401E009008D02068406905
:1019F000C04300E029E040070CD50098F3E744F825
:101A0000305F6773A573206940F02000206162B6E3
:101A100025731AE02068016841F4007101602068B4
:101A20000069616A0870606A401C6062218D491E0D
:101A30002185618D491E618562B621681BE03246B1
:101A40004146204601F083FC18B1012007B0BDE8F3
:101A5000F08F20680069616A0870606A401C6062EB
:101A6000218D491E2185618D491E618521684A6944
:101A7000D24352070AD409690170606A401C60624F
:101A8000208D401E2085608D401E6085208D0028A1
:101A90007FF46AAF84F83D7084F83E5084F83C507F
:101AA000D4E70220D2E70000020010000000FFFF90
:101AB000040001000C01002030B585B00021009128
:101AC000019102910391214D0368214C12210322BF
:101AD0002048AB421DD1A36943F00803A361A36969
:101AE000039203F0080304931302CDE90031694621
:101AF000FFF73AFB1848416841F0E06141F002010C
:101B00004160E06940F40010E061E06900F4001019
:101B100019E0124DAB4217D1A36943F00803A3614A
:101B2000A369039203F0080304934FF44063CDE9E3
:101B300000316946FFF718FBE06940F48000E0617E
:101B4000E06900F48000049005B030BD005400400E
:101B500000100240000C014000000140005800400D
:101B600070B5040011D021684CF6CC4008602168A3
:101B700045F255500860D4E9000141602168A06831
:101B80008860FFF7EFFB054609E0012070BD00BF4C
:101B9000FFF7E8FB401B262801D9032070BD206811
:101BA000C0680028F4D121684AF6AA200860002005
:101BB00070BD00000248816802781144816070475E
:101BC00000010020074810B5016841F010010160D4
:101BD000032000F075F8002000F006F800F024F86B
:101BE000002010BD0020024070B50D4D04464FF49A
:101BF0007A712878B1FBF0F00A490968B1FBF0F07E
:101C000000F062FB48B9102C07D200222146501E7A
:101C100000F036F800206C6070BD012070BD00003F
:101C2000000100200C0100200C4808B5816941F03A
:101C300001018161816901F001010091C16941F0F7
:101C40008051C161C06900F0805000900448416833
:101C500021F0E06141F00071416008BD00100240D8
:101C600000000140002809DB00F01F020121914023
:101C70004009800000F1E020C0F80011704700002A
:101C8000F0B40E4B1B680C46C3F30223C3F10705E7
:101C9000042D00D90425191D072901D2002300E0D5
:101CA000DB1E012606FA05F1491E214099409E409F
:101CB000761E16403143F0BC02F090BB0CED00E004
:101CC000064900F0070208684FF6FF03184040EA93
:101CD0000220034A10430860704700000CED00E04A
:101CE0000000FA052DE9F84305460078354CC00799
:101CF00054D0E0690026C00008D4E06940F080506C
:101D0000E061E069012600F0805000902E480168F3
:101D1000C90512D40168804641F480710160FFF763
:101D200021FB074605E000BFFFF71CFBC01B642832
:101D300023D8D8F80000C005F6D5206A10F440700A
:101D400021D0A98801F4407181421CD0206A1F492A
:101D5000012220F440700A6000220A602062C0075D
:101D600011D0FFF7FFFA074641F2883808E000BFBC
:101D7000FFF7F8FAC11B414502D90320BDE8F883FB
:101D8000206A8007F4D5206A696820F4407008430F
:101D900020621EB1E06920F08050E0612878800761
:101DA00005D56068A96820F4404008436060287841
:101DB000C00605D56068E96820F4800008436060CB
:101DC0000020DBE700100240007000404004424267
:101DD0002DE9F0470F46050061D0434E306800F012
:101DE0000700B84209D2306820F00700384330605D
:101DF000306800F00700B84251D128683B4C810799
:101E000012D5400703D5606840F4E0606060287830
:101E1000000703D5606840F4605060606068A9689E
:101E200020F0F000084360602878C00728D0686878
:101E3000012810D02168022810D0890700292EDA45
:101E4000616821F0030101436160FFF78BFA80466E
:101E500041F288390DE021688903EFE78901EDE758
:101E6000FFF780FAA0EB0801494502D90320BDE83D
:101E7000F0876068696800F00C00B0EB810FEFD16B
:101E8000306800F00700B8420BD9306820F0070036
:101E900038433060306800F00700B84201D00120BC
:101EA000E5E72878400705D56068E96820F4E06038
:101EB000084360602878000706D56068296920F427
:101EC000605040EAC100606000F038F86168084A7C
:101ED000C1F30311515CC840064908600648006818
:101EE000FFF782FE0020C2E70020024000100240FF
:101EF0009C5D00080C0100200401002004480549F5
:101F000000684968044AC1F30221515CC840704727
:101F10000C01002000100240AC5D00080448054997
:101F200000684968044AC1F3C221515CC840704747
:101F30000C01002000100240AC5D000812A185B029
:101F40000FC98DE80F0014A0144A0068049051686E
:101F5000134801F00C03042B10D0082B0ED1C1F351
:101F60008343C9031DF803000AD5516804AAC1F3CD
:101F70004041515C0A4A5043B0FBF1F005B0704754
:101F800008494843FAE70000020304050607080968
:101F90000A0B0C0D0E0F1010010200000010024081
:101FA00000127A0000093D002DE9F84F040070D0BE
:101FB0002078C04DC00749D06868C0F3810001286F
:101FC00007D06868C0F38100022809D16868C0039F
:101FD00006D52868800339D560680028E7D035E049
:101FE0006068B0F5803F0BD010B1B0F5A02F11D0D4
:101FF000286820F480302860286820F4802002E0DF
:10200000286840F480302860606890B1FFF7AAF932
:1020100006460AE0286840F480202860F0E700BF08
:10202000FFF7A0F9801B642873D828688003F7D5D0
:102030000CE0FFF797F9064605E000BFFFF792F9BD
:10204000801B6428F0D828688003F7D420789A4E43
:1020500080074FF001094FF0000839D5686810F08B
:102060000C0F07D06868C0F38100022809D16868A6
:10207000C00306D42868800714D52069012808D138
:1020800010E02069B0B1C6F80090FFF76BF9074681
:1020900005E00AE1FFF766F9C01B0228C4D82868EA
:1020A0008007F7D52868616920F0F80040EAC10090
:1020B00028600DE0C6F80080FFF754F9074604E0F9
:1020C000FFF750F9C01B022823D828688007F7D4EF
:1020D000207800072CD57948A169D9B1C0F80090C3
:1020E000FFF740F9074604E0FFF73CF9C01B022860
:1020F0000FD8686A8007F7D571484FF4FA51006825
:10210000B0FBF1F0009000BF0098411E0091FAD2A0
:102110000EE080E0C0F80080FFF724F9074604E0F5
:10212000FFF720F9C01B022875D8686A8007F7D42A
:102130002078400760D5E8690027C00008D4E86926
:1021400040F08050E861E869012700F0805000907D
:102150005C480168C90513D40168834641F4807165
:102160000160FFF7FFF8824606E000BFFFF7FAF8CC
:10217000A0EB0A0064284ED8DBF80000C005F5D5B6
:10218000E06801280AD008B1052813D0286A20F099
:1021900001002862286A20F0040002E0286A40F06A
:1021A00001002862E06841F2883B98B1FFF7DAF855
:1021B00082460BE0286A40F004002862EEE700BF88
:1021C000FFF7D0F8A0EB0A0159455AD8286A8007D2
:1021D000F6D50CE0FFF7C6F8824605E0FFF7C2F837
:1021E000A0EB0A0159454CD8286A8007F6D41FB1E4
:1021F000E86920F08050E861E06988B36968C1F35C
:102200008101022944D00228C6F8608004D0FFF77B
:10221000A9F8044638E034E0FFF7A4F8074604E0E4
:10222000FFF7A0F8C01B02282BD828688001F7D43C
:10223000206AB0F5803F05D16868A16820F40030BD
:1022400008436860D4E908010843696821F47411FF
:1022500008436860C6F86090FFF784F8044606E01B
:1022600025E000BFFFF77EF8001B022809D8286888
:102270008001F7D51BE000BFFFF774F8001B0228B0
:1022800002D90320BDE8F88F28688001F4D40EE05D
:102290000128F7D06868226A00F48031914204D1A5
:1022A000616A00F47010884201D00120EAE7002042
:1022B000E8E7000000100240000042428004424271
:1022C0000C0100200070004010B5401EB0F1807F6E
:1022D00001D3012010BD4FF0E02460610F21601791
:1022E00002F07CF80020A06107202061002010BDD2
:1022F0007047704710B590F83C20012A22D0012287
:1023000080F83C20CA688C6822F4407222434C68F2
:1023100022F4806222430C6822F4006222430C699A
:1023200022F4805222434C6922F400522243C969AC
:10233000002322F480420A4301684A6480F83C305A
:10234000002010BD022010BD70B590F83C20012A7D
:1023500026D0012480F83C40022280F83D2003680A
:102360005A689D6822F070060A6832435A600D4B25
:1023700002689A4208D0B2F1804F05D00A4B9A42C7
:1023800002D00A4B9A4204D1496825F080031943D0
:10239000916080F83D40002180F83C10084670BDF7
:1023A000022070BD002C01400004004000080040E5
:1023B00010B5040003D094F83D0010B107E00120EF
:1023C00010BD002084F83C00204600F01FF80220D9
:1023D00084F83D00211D206801F07EFD012084F875
:1023E000460084F83E0084F83F0084F8400084F8FA
:1023F000410084F8420084F8430084F8440084F8E3
:10240000450084F83D00002010BD000008B5114AC9
:1024100001681148914208D1816941F400618161EC
:10242000806900F40060009008BDB1F1804FFBD1DD
:10243000C16941F00101C161C069002200F00100E1
:10244000009011461C20FFF71BFCBDE808401C2033
:10245000FFF708BC002C01400010024090F83D102E
:10246000012901D001207047022180F83D10016848
:10247000CA6842F00102CA6000680B49884208D06D
:10248000B0F1804F05D00949884202D008498842FE
:1024900004D1816801F00701062903D0016841F0E9
:1024A0000101016000207047002C01400004004041
:1024B0000008004070B5044690F83C00012817D091
:1024C000012584F83C50022084F83D002068826891
:1024D00022F0770222F47F4282600868502830D0D0
:1024E0000DDC20284DD005DC98B310283BD148E006
:1024F000022070BD302844D0402834D139E0602813
:1025000028D0702806D0B0F5805F2CD0B0F5005FE1
:1025100029D10AE0CB68D1E90121206801F01FFD33
:102520002068816841F0770109E0CB68D1E9012199
:10253000206801F014FD2068816841F480418160C9
:1025400011E0CA684968206801F0BEFD502120688A
:1025500007E016E0CA684968206801F0C6FD6021FE
:10256000206801F006FD84F83D50002084F83C000E
:1025700070BDCA684968206801F0A6FD4021206846
:10258000EFE7226801461046EBE72DE9F0410D46E2
:10259000040003D094F83D0018B108E00120BDE824
:1025A000F081002084F83C00204600F041F8022031
:1025B00084F83D002068816844F2070291438160FD
:1025C000211D206801F088FC226890689169166AD4
:1025D0002B68AF69034340F20330814341EA07218E
:1025E000A868EF6908434FF6FC418843E96840EA70
:1025F0000720014328692F6A000140EA0730084399
:1026000069686D6926F0220646EA0515294393603C
:102610002268906154F8460B0162012004F81F09FA
:10262000E0752076E0762077A0750020B7E70000FF
:1026300000B585B0002100910191029103911A4BE0
:1026400002681A48C0219A4213D1C26942F00202BC
:10265000C261C26902F002020492826942F004027D
:1026600082618069009100F004000490694610487E
:1026700015E0104B9A4214D1C26942F00402C261C3
:10268000C26902F004020492826942F00802826187
:102690008069009100F00800049069460648FEF742
:1026A00063FD05B000BD00000004004000100240C2
:1026B0000008014000080040000C0140704770B560
:1026C0000446006801694FF00005C943890715D425
:1026D000C168C943890711D4E91E0161012020772F
:1026E000206880698007204602D0FFF7E7FF04E0FA
:1026F00000F0BEF8204600F04DF92577206801690A
:10270000C943490717D4C168C943490713D46FF0B7
:1027100004010161022020772068806910F4407F65
:10272000204602D0FFF7CAFF04E000F0A1F82046DF
:1027300000F030F9257720680169C943090716D4EC
:10274000C168C943090712D46FF008010161042070
:1027500020772068C0698007204602D0FFF7AEFFCF
:1027600004E000F085F8204600F014F92577206891
:102770000169C943C90617D4C168C943C90613D43E
:102780006FF010010161082020772068C06910F403
:10279000407F204602D0FFF791FF04E000F068F888
:1027A000204600F0F7F8257720680169C943C9077A
:1027B00008D1C168C943C90704D1891E01612046F7
:1027C00000F038F920680169C943090609D4C168D5
:1027D000C943090605D46FF0800101612046FFF767
:1027E00087FD20680169C943490609D4C168C94306
:1027F000490605D46FF040010161204600F03CF924
:1028000020680169C94389060BD4C168C943890698
:1028100007D46FF0200101612046BDE87040FFF74A
:1028200068BD70BD00B585B0002100910191029195
:10283000039100680B49884212D10B48816941F02D
:10284000040181618069694600F0040004904FF43E
:10285000407000900220019003900448FEF784FC31
:1028600005B000BD002C01400010024000080140EE
:10287000704770B5044690F83C000D4601280AD018
:10288000012084F83C0042B1042A18D0082A2AD03A
:102890000C2A4DD139E0022070BD206801F072FB96
:1028A0002068816941F0080181612068816921F017
:1028B00004018161206881692A69114311E020685F
:1028C00001F088FB2068816941F400618161206822
:1028D000816921F480618161206881692A6941EA06
:1028E0000221816124E0206801F0A0FB2068C16919
:1028F00041F00801C1612068C16921F00401C16192
:102900002068C1692A69114311E0206801F0BAFB0F
:102910002068C16941F40061C1612068C16921F486
:102920008061C1612068C1692A6941EA0221C161EF
:10293000002084F83C0070BD10B5040003D094F86A
:102940003D0010B107E0012010BD002084F83C00DC
:10295000204600F01EF8022084F83D00211D20686A
:1029600001F0BAFA012084F8460084F83E0084F8A9
:102970003F0084F8400084F8410084F8420084F865
:10298000430084F8440084F8450084F83D000020AA
:1029900010BD70477047000010B50446022249B1CF
:1029A00004290ED0082913D094F84100012816D02C
:1029B000012010BD94F83E000128F9D184F83E2092
:1029C0000FE094F83F000128F2D184F83F2008E09E
:1029D00094F840000128EBD184F8402001E084F80D
:1029E00041200122206801F0ADFA0F492068884299
:1029F00003D1426C42F4004242642068884208D00D
:102A0000B0F1804F05D00949884202D00849884278
:102A100004D1816801F00701062903D0016841F063
:102A200001010160002010BD002C014000040040A5
:102A3000000800400E49884218D10E488168491CA0
:102A4000816081680A2291FBF2F302FB131109B93C
:102A5000012101708168052291FBF2F302FB131141
:102A6000002903D1817881F0010181707047000055
:102A700064020020980000207047704770B502681B
:102A800004461068D168536910F00F0F52D003F05C
:102A9000010501F490762E435FD0C20705D0CA0528
:102AA00003D5E26B42F00102E263420705D5DA0783
:102AB00003D0E26B42F00202E263820705D5DA0737
:102AC00003D0E26B42F00402E263020707D501F093
:102AD00020022A4303D0E26B42F00802E263E26B79
:102AE000002A33D0800604D5880602D5204601F09E
:102AF00075FB20684069E16BC0F38010090700D4C2
:102B000028B3204601F053FB2068416949061AD5D5
:102B1000416921F040014161606BA0B12D494163E1
:102B2000606BFEF77DF9002810D0606B416BBDE84B
:102B300070400847830610D58B060ED52046BDE8A9
:102B4000704001F04BBB2046FFF797FF70BD204659
:102B5000FFF793FF0020E06370BD03062BD50B0643
:102B600029D594F839002128F6D1A068B0F5805F06
:102B700001D12069B0B1206A411C2162216800782E
:102B80004860E08C401E0004000CE084E4D1206822
:102B9000C16821F08001C1602068C16841F0400136
:102BA000C16070BD206A0088C0F308005060206AD0
:102BB000801C2062E5E74006F3D54806F1D5D168D0
:102BC000204621F04001D160202184F8391000F026
:102BD000BEF970BD0F41000870B5040004D094F830
:102BE0003900002510B106E0012070BD84F838508E
:102BF000204600F023F8242084F839002068C168BA
:102C000021F40051C160204601F02EFB20680169CB
:102C100021F4904101612068416921F02A0141615C
:102C20002068C16841F40051C160E563202084F848
:102C3000390084F83A00002070BD000070B586B0FD
:102C4000002500950195029503950646354B0268CF
:102C5000354902209A4219D1CA6942F40032CA6148
:102C6000CA6902F4003204928A6942F004028A615D
:102C70008969039001F0040104910C21CDE9001051
:102C800069462A48FEF770FA06B070BD284B9A4292
:102C9000FAD1CA6942F48022CA61CA6902F4802268
:102CA00004928A6942F010028A618969214C01F01C
:102CB000100104911915CDE9001003200390694615
:102CC0002046FEF751FAE014CDE90005694620469A
:102CD0000295FEF749FA1848416821F0300141F0A9
:102CE000E06141F010014160154C1448C4E9000551
:102CF0008020C4E9025025614FF440506561C4E969
:102D000006502046FEF782F908B1FDF71DFF7463F7
:102D10000022114627206662FEF7B2FF2720FEF749
:102D2000A1FFB1E70044004000100240000801404C
:102D30000048004000100140000001403000024007
:102D4000BC030020F8B5044690F83A0020283CD196
:102D5000C1B3BAB394F83800012836D0012084F802
:102D60003800A162A2850025E563222084F83A009C
:102D7000636B17489862636B1648D862636B16489A
:102D80001863606B134645630846666B216802460C
:102D90003046091DFEF768F9206801684168009116
:102DA00084F83850C16841F48071C160206841697D
:102DB00041F0010141612068416941F040014161F8
:102DC0000020F8BDFFE70120FBE70220F9E7000043
:102DD00069410008A54100081F41000810B51849C5
:102DE00088422BD1174C207800281FD0A1F51971EB
:102DF0000F2201F10F00FDF7A5F9E16812A001F023
:102E0000C9FA15A001F0C6FA1BA001F0C3FA1E49C9
:102E10001EA001F0BFFA02F031FA20211D48FEF792
:102E200093FA00202070E068401CE06016490F22F1
:102E3000BDE810400F390248FFF784BF10BD000005
:102E40007C030020980000204D53475F494E4445C5
:102E5000583A256400000000202053616D706C69B1
:102E60006E6720496E74657276616C733A302E31EC
:102E700073283130487A29002055415254332D446B
:102E80004D412D52583D0000270100202573200D93
:102E90000A00000000080140704700002DE9F843D7
:102EA000044690F839001F4616460D4620284CD19E
:102EB000C5B1BEB194F83800012846D0012084F88D
:102EC00038004FF00008C4F83C80212084F8390015
:102ED000FEF748FAA6848146E684A068B0F5805FD4
:102EE00003D004E00120BDE8F883206928B12E4614
:102EF0005FF0000584F838800EE00026FAE78021B4
:102F0000204601F00DFAA0B9AEB116F8010B216808
:102F10004860E08C401EE084E08C4B464FF000029D
:102F200000970028EBD14FF04001204601F0F8F95E
:102F300030B10320D7E735F8020BC0F30800E6E70D
:102F4000202084F839000020CDE70220CBE770472D
:102F5000FEE701684A69D24352050FD46FF48062DC
:102F60004A61002140F8301F2022427381730269B8
:102F700042F0040202610173012070470020704793
:102F80002DE9F84F0446C06A1E4693460D46216857
:102F90000A6842F480620A60082807D0012805D038
:102FA00010F5803F02D0206B112804D12068016801
:102FB00041F4807101604FF001195B4600224946DF
:102FC0002046009600F044F94FF4007840B12068A4
:102FD0000068C00501D5C4F840800320BDE8F88F23
:102FE0002069DFF884A0B0F5804F0FD0062021685B
:102FF00000EAD51747F0F000086133465A460AF157
:103000000601204600F058F958BB03E0E8B240F052
:1030100001001CE02168E8B2086133465A46514677
:10302000204600F049F9E0B92068416981690091C2
:10303000016841F4807101605B46002249462046E8
:10304000009600F005F90028C1D147F0F100216891
:10305000086133465A465146204600F02DF90028B3
:10306000BCD00120BAE7000002000100F8B5044618
:10307000C06A1E460D461746082807D0012805D00D
:1030800010F5803F02D0206B122804D1206801681F
:1030900041F480710160134600224FF00111204677
:1030A000009600F0D5F840B120680068C00502D550
:1030B0004FF4007020640320F8BD2069B0F5804F04
:1030C0000ED00620216800EAD51040F0F00008611B
:1030D00033463A460B49204600F0EEF878B902E054
:1030E00005F0FE0000E0E8B22168086105493346BA
:1030F0003A46891F204600F0DFF80028DCD0012086
:10310000F8BD0000080001002DE9F84F04460068F2
:1031100089460B9D01689846174641F4806101601D
:103120002068016841F48071016000954FF0011B37
:103130000022594620460A9B00F08AF84FF4007A94
:1031400040B120680068C00501D5C4F840A0032044
:10315000BDE8F88F216809F0FE0008612B46284978
:1031600020460A9A00F0A8F8F0BB206841698069FF
:1031700000902A4620460A9900F01CF940B1206CC4
:1031800004283AD12068016841F40071016034E0FC
:10319000FEB2B8F1010F09D02168380A08612A4649
:1031A00020460A9900F006F90028E8D12068066157
:1031B0002A4620460A9900F0FDF80028DFD1206851
:1031C000016841F480710160009500225946204653
:1031D0000A9B00F03DF80028B3D1216809F0FF00F8
:1031E00040F00100086100E007E02B46044920465A
:1031F0000A9A00F061F80028AAD00120A8E7000090
:103200000200010070B516460D4604460DE020464A
:10321000FFF79FFE08B1012070BD681C05D0FEF7C6
:10322000A1F8801BA84207D835B120684069C04387
:103230004007ECD4002070BD002044F8300F20215E
:103240006173A073216941F0200121612073E2E7DD
:103250002DE9F0471E4690460D460446C1F3074748
:10326000DDF8209008E0701C06D0FEF77BF8A0EB9C
:103270000900B0420FD876B12068012F18D08069BC
:1032800025EA00000004000C14D000214145EAD0DA
:103290000020BDE8F087002044F8300F2021617342
:1032A000A073216941F02001216120730120F0E722
:1032B0004069E5E70121E9E72DE9F0479A469146A3
:1032C0000E46044600254FF02008C1F3074725E0CD
:1032D00020684069C043400514D42068016841F467
:1032E0000071016021686FF480604861256384F893
:1032F0003D8084F83E50206C40F00400206484F847
:103300003C501FE0B9F1FF3F08D0FEF72BF8A0EBCF
:103310000A0149450CD8B9F1000F09D02068012FE6
:1033200013D0806926EA00000004000C0BD0CFE720
:1033300044F8305F84F80D80A573206940F02000C8
:10334000206125730120BDE8F0874069EAE72DE997
:10335000F041002590460E460446202717E04069BC
:10336000C043C0060CD454F8301B6FF01000486105
:1033700044F810596777A577206A2062257717E00F
:10338000FDF7F0FFA0EB0800B04208D83EB120687E
:103390004169C9434906E2D40020BDE8F08144F800
:1033A000305F6773A573206940F0200020612573AA
:1033B0000120F2E770B516460D4604460DE02046A2
:1033C000FFF7C7FD08B1012070BD681C05D0FDF7EF
:1033D000C9FF801BA84207D835B120684069C043A7
:1033E0000006ECD4002070BD002044F8300F2021EE
:1033F0006173A073216941F0200121612073E2E72C
:103400002DE9FF5F96B024AD044695E88301D4E929
:10341000082308930692FCF7FCFF3A464346FCF764
:10342000FEFFD4E90623FCF753FF07911290D4E97D
:1034300010A35246384641460993FCF7F0FFCDE908
:103440000001D4E90C939B464A46FCF7E2FFD4E91D
:103450000E23CDE90B32FCF7DCFFD4E90023FCF7A7
:1034600037FF3A464346FCF7DAFFD4E90A23FCF774
:103470002FFF05460E46DDE900014A465B46FCF794
:10348000CBFF8B460490DDE90001DDE90B32FCF750
:10349000C3FF0D910090D4E902013A464346FCF780
:1034A000BEFF5246099BFCF713FFCDE90E01D4E99C
:1034B000042328463146FCF70BFF80468A46024625
:1034C0000B4628463146FDF71CF881460F4642461A
:1034D00053460D990098FDF714F880468A46DDE9B9
:1034E0001801079B129AFCF794FF0B914A463B4642
:1034F0001090FCF794FF079B129AFCF7E9FEC4E9D1
:10350000060107911290404651460B9B109AFCF71A
:1035100086FF089B069AFCF7DBFEC4E908010498C5
:1035200006902A46334648463946FCF778FF2A4635
:103530003346FCF771FFC4E90A015B464846394649
:10354000069AFCF76CFF5B46049AFCF765FFC4E93A
:103550000C012A46334640465146FCF760FF0D9B5E
:10356000009AFCF759FFC4E90E015B4640465146FC
:10357000069AFCF754FFDDE90E23FCF74DFFC4E982
:103580001001079912981AB0BDE8F09F2DE9F0419B
:1035900017460D4606460024FDF7FCF8394630462E
:1035A000FDF702F929463046FDF7FEF811D83946F5
:1035B0003046FDF7EFF80CD829463846FCF738FEC0
:1035C000044629463046FCF733FE2146FCF736FE1A
:1035D00004462046BDE8F0812DE9F04F89B00C4645
:1035E00064230E2204A98DE80E0001233B22D02182
:1035F000FEF73AF9BDF8100040BA00B22080BDF8DD
:10360000121049BA09B261808946BDF8141049BA4E
:1036100009B2A1808846BDF8161049BA0FFA81FA9E
:10362000BDF8181049BA0FB22784BDF81A1049BA6C
:103630000EB26684BDF81C1049BA0DB2A584FCF721
:10364000F4FF6FF00D0B5A46FCF7CAFFC4E9020104
:103650004846FCF7EAFF5A46FCF7C2FFC4E90401FA
:103660004046FCF7E2FF0022614BFCF74AFFC4E949
:1036700006015046FCF7CBFF5E49FCF7DFFD5E49D3
:10368000FCF784FD20643846FCF7CFFF5B4F002237
:103690003B46FCF736FFC4E90A013046FCF7C5FF9C
:1036A00000223B46FCF72DFFC4E90C012846FCF73D
:1036B000BCFF00223B46FCF724FFC4E90E01FDF7E6
:1036C00051FE4F4D2968401AFCF7C0FF00224D4BB8
:1036D000FCF717FF81468A46FDF744FE2860B4F9DF
:1036E0000010B4F90400494300FB0010FCF79DFFF3
:1036F00002F0A2FA002205460E461346FCF7FEFF32
:1037000010D0B4F90200FCF790FF2A463346FCF7CC
:10371000F8FE01F045FB3C4A3C4BFCF780FE0746B7
:10372000884601E00027B846B4F90400FCF77DFFA5
:103730000646B4F900000D464042FCF776FF3246DB
:103740002B4601F03DFC304A304BFCF768FEDFF8B9
:10375000C0B005460E4600225B46FCF7CFFF06D2FE
:10376000D4E9140100222B4BFCF7E0FF0DD300221B
:10377000284B28463146FCF7D9FF0DD2D4E9140175
:1037800000225B46FCF7BAFF06D21D485030C0E964
:103790000656C4E914560DE0CDE9029AD4E90C01AD
:1037A000CDE9000116482A4633465030FFF728FE7F
:1037B000C4E91401D4E9140121F000410022154BA1
:1037C000FCF7B4FF03D2E16A81F00041E162CDE988
:1037D000029AD4E90C01CDE9000109483A46434672
:1037E0000830FFF70DFEC4E9120109B0BDE8F08F03
:1037F0000029CC400000AA43B81E1242006060407D
:103800000000002000408F40F8C1631ADCA54C4046
:10381000008056C000805640FEB500241748009432
:10382000019415490294016089158160047304753F
:10383000022505614FF460214460C161FDF71CFA67
:1038400010B10F4800F0A6FD0126CDE900466946FB
:103850000A480294FDF792F910B1094800F09AFD68
:10386000CDE9006569460548FDF788F9002802D0D2
:10387000034800F08FFDFEBD002401403801002008
:10388000500B000838B51348416941F0010141610E
:103890004069124C00F0010000900F4820600020A9
:1038A00080216060C4E9020120616061A06188013B
:1038B000E0612046FDF7AAFBA4F14000002204636A
:1038C000606211460D20FEF7DBF9BDE838400D209F
:1038D000FEF7C8B90010024030000240BC030020CF
:1038E0002DE9F04186B000242C4800940194029404
:1038F0000394816941F010018161816901F0100137
:103900000491816941F020018161816901F0200108
:103910000491816941F004018161816901F0040130
:103920000491816941F00801816180691C4F00F0B8
:103930000800049000220F213846FDF70DFDDFF846
:103940006480002220214046FDF706FD7814009097
:103950001548CDE9010469463846FDF705FC0F20FE
:1039600001250226CDE90005CDE902466946384623
:10397000FDF7FAFB2020CDE90005CDE902466946B6
:103980004046FDF7F1FB002211462820FEF778F9AA
:103990002820FEF767F906B0BDE8F081001002406C
:1039A0000010014000080140000011100D4810B542
:1039B0000B4901600C49416000214FF48042816055
:1039C000C0E9031241618161C1610162FDF7D0FC70
:1039D000002804D0BDE81040044800F0DBBC10BD56
:1039E0000054004068010020A0860100500B000830
:1039F0000D4810B50B4901600C49416000214FF49E
:103A000080428160C0E9031241618161C16101624C
:103A1000FDF7AEFC002804D0BDE81040044800F0DB
:103A2000B9BC10BD00580040BC010020A0860100B8
:103A3000500B000810B596B000240F941094119408
:103A4000129413941C2168461494FCF794FB2021D3
:103A500007A8FCF790FB30482E4901601421C0E90B
:103A600001144FF46161C0E9031444618461FEF7FD
:103A70009FFC10B1294800F08DFC4FF480500F904E
:103A80000FA92548FEF716FD10B1244800F082FC6E
:103A90002148FEF751FF10B1204800F07BFC139441
:103AA00013A91D481494FEF74FFC10B11B4800F0F9
:103AB00071FC6020CDE90004029403940494059401
:103AC0000022694614480694FEF7D3FE10B113484D
:103AD00000F060FC042269460F48FEF7CAFE10B1F0
:103AE0000E4800F057FC0794089409944FF40050D6
:103AF0000A94CDE90B4007A907480E94FEF7FAFB9C
:103B000010B1064800F046FC0348FEF78BFE16B0E5
:103B100010BD0000002C01401C020020500B0008CA
:103B200010B586B0002418480094019402940394C0
:103B300004944FF08041059401600915C0E9011417
:103B400040F2C521C0E903148461FEF731FC10B1D5
:103B50000E4800F01FFC4FF48050009069460A4860
:103B6000FEF7A8FC10B1094800F014FC049404A965
:103B700005480594FEF7E8FB002802D0034800F052
:103B800009FC06B010BD000064020020500B0008C4
:103B900010B58CB024216846FCF7EDFA00241748D4
:103BA000099415490A94C0E900144FF6FF71C0E961
:103BB0000241046184610320CDE900040120CDE9C4
:103BC00002040A210491CDE90540CDE90741694687
:103BD0000A48FEF7DAFC10B1094800F0DBFB099453
:103BE00009A906480A94FEF7AFFB002802D0044852
:103BF00000F0D0FB0CB010BD00040040AC0200206F
:103C0000500B000810B58CB024216846FCF7B3FABD
:103C100000241748099415490A94C0E900144FF686
:103C2000FF71C0E90241046184610320CDE9000411
:103C30000120CDE902040494CDE9054007946946CA
:103C40000B480894FEF7A1FC10B10A4800F0A2FB53
:103C5000099409A906480A94FEF776FB002802D0C9
:103C6000044800F097FB0CB010BD000000080040B5
:103C7000F4020020500B00080D4810B50B490160FC
:103C80004FF4E1314160002181600C22C160C0E944
:103C900004128161C161FEF79FFF002804D0BDE8D6
:103CA0001040044800F076BB10BD00000044004006
:103CB0003C030020500B00080D4810B50B49016073
:103CC0004FF4E1314160002181600C22C160C0E904
:103CD00004128161C161FEF77FFF002804D0BDE8B6
:103CE0001040044800F056BB10BD000000480040E2
:103CF0007C030020500B0008FEE77047AFF3008004
:103D00000021084600F018B83EB542F210748DF854
:103D10000400012301AA802106480094FDF70EFD4E
:103D2000012302AA802103480094FDF7E5FB9DF8DA
:103D300008003EBDBC0100201CB502238DF8040024
:103D400042F210708DF80510009001AA80210248FF
:103D5000FDF7F4FC1CBD0000BC01002070472DE9FC
:103D6000F0410F461546064600241146FCF71CFD9F
:103D700039463046FCF70EFD01D24FF07E542946FD
:103D80003046FCF707FD11D839463046FCF70CFDEC
:103D90000CD839462846FCF74BFA044629463046EB
:103DA000FCF749FA2146FCF749FA04462046BDE8EB
:103DB000F081704770B5FCF78EFC4FF066321B4BFC
:103DC000FCF72DFBFCF7CAFC044619486FF00B0109
:103DD000FCF772FA2146FCF731FA4FF07E51FCF7FE
:103DE00027FAFCF778FC0022124BFCF771FA01F07D
:103DF000CBF9FCF757FC05460020FFF785FF04468A
:103E000000F07F0040F010010020FFF795FFE9B2BD
:103E1000FE20FFF791FF21460020FFF78DFF44F0C1
:103E2000A101BDE870400020FFF786BF6666EE3F47
:103E300020BCBE4B0000E03FFDF7BCBE30B593B0E8
:103E400028216846FCF797F914210AA8FCF793F992
:103E500000250F95092000901095119512954FF4AB
:103E6000A020CDE9010501200224CDE9060404903B
:103E7000000408904FF4E01009906846FEF794F8AB
:103E800010B1104800F086FA0AA90F2081E831002D
:103E90004FF48060CDE90D0502210AA8FDF798FFD7
:103EA00010B1084800F076FA4FF4004011900F94DA
:103EB0000FA8FDF717FF002802D0024800F06AFAA9
:103EC00013B030BD500B0008704700000148FEF7EA
:103ED000F6BB000064020020F0B50268164B174CD8
:103EE000174D4FF08047984205D0B84203D0A0420A
:103EF00001D0A84203D122F070064A6832439842AA
:103F000005D0B84203D0A04201D0A84203D122F488
:103F10004074CA6822434C6922F080022243026046
:103F20008A68C2620A688262984201D109690163A3
:103F300001214161F0BD0000002C0140000400405F
:103F40000008004010B501F01F030121046A9940E8
:103F50008C430462016A9A401143016210BD10B59E
:103F6000846842EA032224F47F440A4322438260A5
:103F700010BD826822F070020A4342F0070181609E
:103F80007047000030B5026A22F001020262026A44
:103F90004368846924F073050C682C4322F0020501
:103FA0008A682A430A4DA8420BD122F00805CA6844
:103FB00023F440732A434D6922F004021D438B69A8
:103FC0002B434360846149684163026230BD000055
:103FD000002C014030B5026A22F010020262026A2F
:103FE000436884690D6824F4E64444EA05248D6836
:103FF00022F0200242EA05120B4DA8420ED1CD68F4
:1040000022F0800242EA05124D6923F4406343EA3C
:1040100085038D6922F0400243EA85034360846191
:1040200049688163026230BD002C014030B5026AEC
:1040300022F480720262036A4268C46923F4007346
:1040400024F073050C682C438D6843EA05230C4D5E
:10405000A8420ED1CD6823F4006343EA05234D69DD
:1040600022F4405242EA05128D6923F4806342EA49
:1040700005124260C4614968C163036230BD00003B
:10408000002C014030B5026A22F480520262046AB8
:104090004268C3690D6823F4E64343EA05238D684B
:1040A00024F4005444EA0534064DA84204D14D6975
:1040B00022F4804242EA85124260C3614968016489
:1040C000046230BD002C014010B5036A046A24F07C
:1040D00001040462846924F0F00444EA021423F029
:1040E0000A020A438461026210BD10B5036A23F01C
:1040F000100303628369046A23F4704343EA0232C3
:1041000024F0A00343EA01118261016210BD10B5E1
:10411000406A0021C185C184FEF7AFFC10BD70B5B7
:10412000446A2068406994F83910C0F3C010002533
:10413000212904D118B1E584204600F046F8206812
:10414000406994F83A10C0F38010222904D118B1C4
:10415000E585204600F02BF8E06B40F01000E063AE
:104160002046FEF78AFC70BD10B50146406A09681A
:104170000968890613D40021C1850168CA6822F440
:104180008072CA6001684A6922F001024A610168CE
:104190004A6922F040024A61202180F83A10FEF775
:1041A0001DFE10BD10B5406AFEF776FE10BD016819
:1041B000CA6822F49072CA6001684A6922F001025A
:1041C0004A61202180F83A1070470168CA6822F0DD
:1041D000C002CA60202180F83910704710B590F8ED
:1041E0003A10222901D0022010BD82684FF480537A
:1041F0009A4201D1016921B1816A9A421BD04AB128
:104200000AE00268816A5268C2F308020A80816A81
:10421000891C08E0026972B10268526802F07F02EC
:104220000A70816A491C8162C18D491E0904090C0A
:10423000C18503D016E002685268F1E70168CA68D8
:1042400022F02002CA600168CA6822F48072CA6043
:1042500001684A6922F001024A61202180F83A107F
:10426000FEF7BCFD002010BD70B504460068016972
:10427000E26821F44051114301612169A0680843BB
:10428000616908432168CA6841F20C639A4302439A
:10429000CA6020684169A26921F4407111434161FB
:1042A0001E492068884202D1FDF738FE01E0FDF783
:1042B00025FE00EBC00101EB001260686421800064
:1042C000B2FBF0F3B3FBF1F36FF018067343B2FBEC
:1042D000F0F5B2FBF0F605EB8305322303EB051591
:1042E000B5FBF1F5B6FBF1F605F0F00505EB0615AB
:1042F000B2FBF0F6B2FBF0F0B0FBF1F06FF0180299
:10430000504306EB800003EB0010B0FBF1F0216896
:1043100000F00F002844886070BD000000380140A4
:104320002DE9F041984617460E460446069D1DE0CD
:10433000681C1BD02DB1FDF715F8A0EB0800A842B2
:1043400014D92068C16821F4D071C1602068416926
:1043500021F001014161202084F8390084F83A00FD
:10436000002084F838000320BDE8F0812068006850
:1043700036EA000004D00020B842D9D00020F3E78C
:104380000120F9E70148FEF779BB00007C0300201B
:10439000FEE700000FB4054B10B503A9044A0298CC
:1043A00000F066F910BC5DF814FB000065520008CF
:1043B00010010020490050EAC12018BF04204A0D16
:1043C00018BF40F0010040F2FF72B2EB515F08BF2E
:1043D00040F00200012808BF052070470907090EB8
:1043E000002804DB00F1E02080F80014704700F0A2
:1043F0000F0000F1E02080F8141D70472DE9F04116
:104400004F1E00EBC7010446D1E9000115461E46C8
:1044100037F006020DD02A463346FCF700F87F1E1F
:1044200004EBC703D3E90023FBF752FF37F0060282
:10443000F1D1022F25D0042F13D0062F18BFBDE8CD
:10444000F0812A463346FBF7EAFFD4E90A23FBF75B
:104450003FFF2A463346FBF7E2FFD4E90823FBF788
:1044600037FF2A463346FBF7DAFFD4E90623FBF78A
:104470002FFF2A463346FBF7D2FFD4E90423FBF78C
:1044800027FF2A463346FBF7CAFFD4E90223FBF78E
:104490001FFF2A463346FBF7C2FFD4E90023BDE8DD
:1044A000F041FBF715BF0122FCF79AB8FBF710BFEC
:1044B000024A00201107FCF793B8000001FDFFFF3E
:1044C00002E008C8121F08C1002AFAD170477047DD
:1044D000002001E001C1121F002AFBD1704700003B
:1044E0000149086070470000140100202DE9FF5FBA
:1044F00082B00021DDE90430020DDDF840B0034355
:1045000018D044F61050A2F2FF324243151411980D
:1045100001281FD0A5EB0B00401C5FEA000A4FF0FA
:1045200000064E4FDFF83891B046504615D5CAF117
:10453000000413E0119801244AA3012801D16FEA75
:104540000B010298119AC0E90031C0E9024206B09D
:10455000BDE8F09FCBF10000DFE704460021404AB0
:10456000491842EB0450CDE9001012E0E00707D0F3
:1045700032463B4640464946FBF751FF8046894656
:1045800032463B4610461946FBF749FF06460F46A2
:104590006410002CEAD1DDE90401DDE90023BAF161
:1045A000000F06DAFBF73BFF42464B46FBF737FFAF
:1045B00005E0FBF7A6FF42464B46FBF7A2FF044689
:1045C0000E460022284BFCF7B1F803D84FF0FF301D
:1045D000014607E00022254B20463146FBF778FED6
:1045E000FCF739FA102409E0002C0ADB0A22002328
:1045F000FCF7FAF8039B30321A55641E50EA0102A8
:10460000F2D1641C039AC4F111031444119A012AD3
:1046100003D0012208430DD10AE0084304D0002052
:104620004FF0110B119072E7A3EB0B056D1E0DE01F
:104630005B4504DD4FF0000205F1010504E003DAFB
:104640004FF00002A5F10105002AECD00298119963
:10465000C0E90231C0E9004579E7000000001440DC
:104660000000F03F300000000000F0430000E03F99
:104670002DE9FF4F95B09B468946064600250FE27F
:10468000252877D100242746F84A0121059400E027
:10469000044316F8013F203B01FA03F01042F7D122
:1046A00030782A2811D06FF02F033078A0F1300233
:1046B000092A16D8059A44F0020402EB820203EBA1
:1046C00042021044761C0590EFE759F8042B05923E
:1046D000002A03DA504244F40054059044F00204E6
:1046E000761C30782E2816D116F8010F44F00404F9
:1046F0002A280DD06FF02F023078A0F13003092B5B
:1047000009D807EB870302EB4303C718761CF3E7CE
:1047100059F8047B761C30786C280FD006DC4C28C6
:1047200017D068280DD06A2814D104E0742810D05E
:104730007A280FD10DE044F400140AE044F4801408
:1047400001E044F440147278824202D104F58014EE
:10475000761C761C307866280BD013DC582877D06E
:1047600009DC002875D04528F6D04628F4D0472823
:104770001AD19DE118E0632835D0642879D06528E6
:1047800012D195E1702873D008DC6728F1D0692830
:104790006FD06E280DD06F2806D1B5E073282CD0CD
:1047A000752875D0782874D05A46179990476D1C93
:1047B00075E1C4F30250022809D003280DD0D9F8BE
:1047C000001004280DD00D6009F1040967E1D9F843
:1047D0000010EA17C1E90052F6E7D9F800100D8081
:1047E000F2E70D70F0E719F8041B8DF800100020B7
:1047F0008DF80100EA46012003E059F804AB4FF0C0
:10480000FF3061074FF0000102D40DE008F1010113
:104810008846B9420FDA8045F8DB1AF808100029FB
:10482000F4D108E008F1010188468142FADB1AF868
:1048300008100029F6D105985B46A0EB0807214631
:104840003846179A00F094FA284400EB080507E070
:104850004DE029E10DE01AF8010B5A4617999047EF
:10486000B8F10108F7D25B4621463846179A13E1A2
:1048700042E00A220092C4F302524FF0000A022AD8
:1048800008D059F804CB032A4FEAEC710AD00DE0A6
:1048900029E02AE009F1070121F00702F2E802C14C
:1048A000914609E00FFA8CFC4FEAEC71042A03D11F
:1048B0004FFA8CFC4FEAEC71002907DA0A46002116
:1048C000DCF1000C61EB02012D2202E0220504D58F
:1048D0002B228DF80420012203E0E20701D02022E0
:1048E000F7E7904659E00A2102E010220DE010217E
:1048F0004FF0000A00910BE010224FF0000A44F044
:1049000004040827009203E008224FF0000A0092F6
:10491000C4F30252022A05D059F804CB0021032A1D
:1049200008D009E009F1070121F00702F2E802C10D
:10493000914605E01FFA8CFC042A01D10CF0FF0C13
:104940004FF00008220728D5702806D0009B83F07E
:10495000100353EA0A0305D00EE040228DF804202C
:10496000012208E05CEA010206D030228DF8042022
:104970008DF8050002229046009B83F0080353EA5D
:104980000A030AD15CEA010201D1620705D530228F
:104990008DF804204FF001087F1E582804D034A061
:1049A00003900EA802900DE036A0F9E7534660464A
:1049B000009AFBF719FF84460398825C0298401E18
:1049C000029002705CEA0100F0D1029806A9081A70
:1049D00000F1200A600702D524F4803400E00127AA
:1049E000574502DDA7EB0A0000E0002000EB0A01BA
:1049F000009005984144401A0590E00306D45B46B8
:104A00002146179A059800F0B3F90544002706E0FF
:104A100001A85A46C05D179990476D1C7F1C4745F9
:104A2000F6DBE0030CD55B462146179A059800F0AB
:104A30009FF9054404E030205A46179990476D1CB1
:104A40000099481E00900029F5DC08E002980299C0
:104A50005A460078491C0291179990476D1CBAF18B
:104A60000001AAF1010AF1DC65E10000092801005A
:104A700030313233343536373839616263646566D4
:104A80000000000030313233343536373839414296
:104A9000434445460000000000F058F90544761CE8
:104AA000307800287FF4ECAD19B02846BDE8F08FCF
:104AB000620700D4062709F1070222F0070CFCE880
:104AC0000223E14603F000485FEA080C02D00FF22F
:104AD000702C0DE05FEA045C02D50FF2682C07E051
:104AE0005FEAC47C02D00FF2602C01E0AFF2700CE0
:104AF0004FF0FF3823F00043CDF850C065280CD0AC
:104B000006DC452809D046281DD047283DD13DE088
:104B1000662818D067287ED138E00021112F01DBEC
:104B2000112000E0781CCDE9000106A90EA8FFF7CE
:104B3000DDFCDDE90F010E9A03910021009207F1DF
:104B4000010A04914DE04FF000400097CDE90110BB
:104B500006A90EA8FFF7CAFCDDE90F0203920E9B1F
:104B600011990022DDF80CA00093049211B9791C70
:104B700000EB010AB7EB0A0004D4C0F1FF3007F1E3
:104B8000010A0490AAEB0700019044E0012F00DA2B
:104B900001270021112F01DD112000E03846CDE969
:104BA000000106A90EA8FFF7A1FCDDE90F010E9A8E
:104BB0000391002104910092BA4621070CD4039975
:104BC000514500DA8A46BAF1010F05DD009AAAF1D3
:104BD0000101515C302908D0B84202DA10F1040F0B
:104BE00006DA0121CDE9011015E0AAF10101E9E79A
:104BF000002805DC049901440491AAEB000102E0BD
:104C0000411C514500DD8A460499401A401C019020
:104C10004FF000400290200704D40198504501DB7A
:104C2000CDF8048000208DF84F0002980DF14F0759
:104C3000B0F1004F25D02B200E9002984FF00208C3
:104C400000280CDA404202902D200E9007E00A2145
:104C50000298FBF7B3FD3031029007F8011DB8F15F
:104C60000001A8F10108F2DC02980028EFD1791EBA
:104C70000E980870307800F0200040F0450007F8EA
:104C8000020D12A8C01B00F107081498007800B1AB
:104C9000012000EB0A01019801EBE0710598414405
:104CA000401A401E0590E00306D45B462146179A41
:104CB000059800F05DF805441498007818B15A463C
:104CC000179990476D1CE00324D55B462146179A3F
:104CD000059800F04DF805441CE00498002807DB17
:104CE000DDE90301884203DD0098405C179901E08B
:104CF000179930205A469047049805F10105401C49
:104D000004900198401E019004D12E205A46179914
:104D100090476D1CBAF10001AAF1010ADDDC05E043
:104D200017F8010B5A46179990476D1CB8F100010E
:104D3000A8F10108F4DC5B462146179A0598ABE61A
:104D40002D0000002B000000200000002DE9F041A4
:104D5000044600251E461746880404D405E039465B
:104D60002020B0476D1C641EF9D52846BDE8F081AF
:104D70002DE9F041044600251E469046C80301D5A2
:104D8000302700E02027880404D505E04146384656
:104D9000B0476D1C641EF9D52846BDE8F0810000BF
:104DA0002DE9F84F04460D4621F00040009173496B
:104DB000814211DC7249884201DC06D12CB12046C7
:104DC0002946BDE8F84FFFF76EBB6E48002DCCBFFB
:104DD0006D496E49BDE8F88F6D49814211DD6D491D
:104DE0008142D8BF4FF0FF366DDD20462946FFF7E0
:104DF000E1FA042808BFFFF75BFB20462946BDE81F
:104E0000F88F6549654F25F00045814233DD6449DF
:104E1000814219DD002632464FF080432046294664
:104E2000FBF756FA80468A46012220462946FBF7C0
:104E3000D7FB00223B46FBF7ECFA42465346FBF712
:104E400060FB04460D463EE001260022BA463B4682
:104E500020462946FBF73CFA80460F46002253467F
:104E600020462946FBF7D5FA42463B46FBF749FB6D
:104E700004460D4627E04B4981421BDDDFF828A19F
:104E800002260022534620462946FBF7C8FA002294
:104E90003B46FBF71DFA80460F460022534620464C
:104EA0002946FBF7B6FA42463B46FBF72AFB044687
:104EB0000D4608E0032622462B4600203B49FBF71F
:104EC00020FB04460D4622462B4610461946FBF7AA
:104ED000A6FA8B46824602460B46FBF7A0FA074627
:104EE0000246334888460B4606217844FFF786FA87
:104EF00052465B46FBF793FA82462E488B463A466B
:104F0000434605217844FFF779FA3A464346FBF7D2
:104F100086FA02460B46002E504659460CDAFBF73D
:104F2000D7F922462B46FBF77AFA01B022462B46E8
:104F3000BDE8F04FFBF770BAFBF7CAF922462B46E3
:104F4000FBF76DFA1C4A7A4402EBC603D3E900234F
:104F5000FBF75FFA22462B46FBF75BFA174A7A44C7
:104F600002EBC603D3E90023FBF756FA009A002AA6
:104F7000B8BF81F00041BDE8F88F00000000104488
:104F80000000F07F182D4454FB21F93FFB21F9BFAD
:104F90000000DC3F0000203E0000F33F0000F03F37
:104FA0000000E63F008003400000F83F0000F0BF33
:104FB000320F0000F00E00008E0E0000560E0000B2
:104FC0002DE9F04D9446CCF1000423F000464CEA64
:104FD0000404524F46EAD4749A46884621F00042AF
:104FE000BC4206D8454240EA050442EAD474BC42B9
:104FF00004D9BDE8F04D6246FFF758BAAAF1405512
:10500000A5F17F6555EA0C040BD0022404EAAA74CA
:10501000434DDFF810E144EAD87452EA000B04D0A3
:105020000CE0BDE8F04DFFF7BBBE002C14BF012C17
:10503000BDE8F08D022C30D0032C32D056EA0C0B98
:105040000AD0BE4220D1BA4209D126F0804622F0D1
:1050500080423346114617E000291ADB25E0DFF8CD
:10506000C8B0FB44002C04BFDBE90001BDE8F08DB3
:10507000012C02BFDBE9000181F00041BDE8F08DA9
:10508000022C0AD0032C0CD0BA4212D1B8F1000F76
:105090000BDA23482549BDE8F08D28462449BDE8B0
:1050A000F08D28467146BDE8F08D1D482149BDE8C8
:1050B000F08D921B12153C2AC4BF19481D490EDC05
:1050C000BAF1000FBEBF12F13C0F0020014606DB13
:1050D0006246FBF716FA21F00041FFF761FE002C53
:1050E00008BFBDE8F08D012C04BF81F00041BDE890
:1050F000F08D114A114B022C07D0FBF78AF92A4692
:10510000BDE8F04D0A4BFBF784B9FBF782F92A465C
:10511000BDE8F04D064BFBF77FB900000000F07FC3
:10512000182D4454FB2109C0EA0D0000FB21F9BFF2
:10513000FB210940FB21F93F075C143326A6A13C63
:105140004FF4616148436421B0FBF1F07047000007
:1051500010B5FBF765FA0849FBF770F8FBF7BBFAE7
:105160000022064BFBF7B4F8054A064BFBF757F94C
:10517000FBF798FA80B210BD0000B4420000E03F97
:105180009A999999999969402DE9F041C1F30A5288
:10519000A2F2FF362F4A304B0D460446142E2FDA6A
:1051A000002E12DAFBF794F800221346FBF7BEFA42
:1051B0004CD2002DA4BF0024254647DA25F000403C
:1051C000204318BF254D41D018E0DFF894C02CFAD9
:1051D00006F705EA070C5CEA040C08BFBDE8F0819D
:1051E000FBF776F800221346FBF7A0FA2ED2002D2B
:1051F00003DA4FF48010F0400544BD43002425E05D
:10520000332EC8BFBDE8F081A6F1140C4FF0FF3774
:1052100027FA0CF73C4208BFBDE8F081FBF7FCF829
:1052200000221346FBF782FA10D2002D0DDA142E5D
:1052300008BF6D1C09D0C6F13400012101FA00F04D
:105240002044A04238BF6D1C0446BC43294620467A
:10525000BDE8F0819C7500883CE4377E0000F0BF1B
:10526000FFFF0F0013B54FF6FF7301226946024896
:10527000FDF714FE00981CBD3C03002070B52FA064
:10528000FFF788F83A4C3BA02178FFF783F8607865
:10529000642130384843A1783A4D303901EB81011F
:1052A0004A00E17810443039014429616079642270
:1052B00030385043A279303A02EB82025300E2794F
:1052C0001844303A10446861607A642230385043A0
:1052D000A27A303A02EB82025300E27A1844303A62
:1052E0001044A86128A0FFF755F8D5E905122CA0B5
:1052F000FFF750F8207B4C280AD0522815D05328AD
:1053000002D0582809D114E0002068702EA002E0D5
:105310000120687032A0FFF73DF837A0FFF73AF898
:10532000BDE8704042A0FFF735B80220687041A088
:10533000F1E70320687046A0EDE700003C2D2D2D1D
:105340002D2D2D2D2D2D2D2D2D2D2D2D4750552035
:105350004D534720427265616B646F776E2D2D2D22
:105360002D2D2D2D2D2D2D2D2D2D2D2D3E0D0A00CC
:10537000270100204D5347204865616465723A2536
:10538000630D0A00980000204C616E65204469732B
:1053900074616E6365284C4853293A25640D0A00F0
:1053A000546172676574204F626A65637420436F4D
:1053B0006F7264696E616765733A583D25647C5904
:1053C0003D25640D0A000000547261666669632021
:1053D000537461747573203D2053544F500D0A006F
:1053E0005472616666696320537461747573203DFD
:1053F000204C4546540D0A003C2D2D2D2D2D2D2DD4
:105400002D2D2D2D2D2D2D2D2D2D2D2D2D2D2D44B5
:105410004F4E452D2D2D2D2D2D2D2D2D2D2D2D2D61
:105420002D2D2D2D2D2D2D2D2D3E0D0A0000000092
:105430000D0A0000547261666669632053746174DA
:105440007573203D2052494748540D0A0000000062
:105450005472616666696320537461747573203D8C
:1054600020554E4B4F574E0D0A0000001CB5FCF75F
:10547000A9FBFEF7E3FCFEF733FAFEF703FAFEF7AB
:10548000FBFBFEF7B5FAFEF74BFBFEF781FBFEF7E1
:10549000B9FBFEF711FCFEF7CDFA854883490160A0
:1054A0000321416040F6FF718160FCF759FB10B1A8
:1054B0008048FEF76FFFFEF7AFF9FEF777FA7EA0A0
:1054C000FEF768FF84A0FEF765FF79490F22F839DF
:1054D00001F51970FDF736FC75485430FCF7BEFF36
:1054E000734800210C30FDF757FA714804210C3045
:1054F000FDF752FAFEF702FC8048FEF75BFC002045
:10550000FFF726FE0146002000F074FBC820FBF7E1
:10551000E3FD7BA0FEF73EFF814D824CA078002882
:10552000FCD07F49A1F52670FEF756F8E078B0B3BD
:10553000D5E91201D4E91223FAF76BFFC4E9160189
:1055400006460F46D5E91401D4E91423FAF761FFA2
:10555000C4E918012279002A58D0FBF784F8804664
:1055600030463946FBF77FF8014642466EA0FEF70B
:1055700011FF00BFD4E9160100F03CF92062616A16
:1055800008446062D4E9180100F034FAE062216B4B
:1055900008442063616A712940DB712141E0FFE723
:1055A000D5E91423D4E9100190469946FAF790FE04
:1055B000C4E91001D5E91223D4E90E0116461F46AD
:1055C000FAF786FEC4E90E01207970B140464946DB
:1055D000FBF749F8804630463946FBF744F8014668
:1055E000424651A0FEF7D6FE41E05248E169FEF77F
:1055F000D1FED5E91401CDE90001D5E912234EA071
:10560000FEF7C8FE56A0FEF7C5FE30E0CDE900016A
:1056100032463B465EA0FEF7BDFEABE7532901DCF8
:10562000532161626A2801DB6A2002E04C2801DC18
:105630004C202063207918B960A0226BFEF7AAFEE7
:10564000A08C80B2FFF784FD0146022000F0D2FA60
:10565000208E80B2FFF77CFD0146002000F0CAFAE0
:10566000C820FBF739FD606AA062206B6063E069C7
:10567000C82814D1E07890B90120E0705C4ED4E9DC
:105680000E0100223346FAF73CFFC4E91201D4E9C7
:10569000100100223346FAF734FFC4E914010DA0CB
:1056A000FEF778FEE069401CE06137E7003000401B
:1056B00010020020500B00085B53595354454D5DB8
:1056C000204D657263792048656C702053544152B7
:1056D000542E2E2E0D0A00005B53595354454D5D38
:1056E00020436F6E6E656374696E6720746F204D22
:1056F0005055363035302E2E2E0D0A00000048420F
:105700005B53595354454D5D204D5055363035301F
:1057100020436F6E6E65637465642E2E2E0D0A0035
:1057200000040020980000202425642025643B0DFF
:105730000A000000585E00085B4C4F475D20583A55
:1057400020252E326620646567726565207C2059AD
:105750003A20252E3266206465677265650D0A0061
:105760005B53595354454D5D506C656173652064BE
:105770006F206E6F74206D6F766520796F75722063
:105780006779726F2073656E736F72210D0A000066
:105790005B4C4F475D20536D6F6F74686564205894
:1057A0003A20252E3266207C20536D6F6F74686519
:1057B0006420593A20252E32660D0A0073657276F0
:1057C0006F5F636F6E74726F6C5B70697463685D3A
:1057D0003A2564202020736572766F5F636F6E7464
:1057E000726F6C5B7261775D3A25640D0A00000090
:1057F000000069402DE9FC5F6A4FDFF8AC816B4E19
:105800006B4DDFF8B091FAF7A9FF00232A46314625
:10581000019000F083FA04463A4641460198FEF7AB
:105820009EFA2146FAF7C0FF019804D23A46414653
:10583000FEF795FA04E000232A46314600F06EFA9E
:10584000FAF749FF82468B464FF080434C46019859
:105850005A422946CDF8009000F014FA074600237A
:105860002A463146019800F059FA3946FAF79CFF6A
:10587000019805D200232A46314600F04FFA06E08F
:105880004FF080435A422946009400F0FBF9FAF7A2
:1058900022FF80468946484B22460021019800F0AD
:1058A0003DFA4FF0804306465F4201983A4629464A
:1058B000009400F0E7F93146FAF776FF019806D236
:1058C0007B423A462946009400F0DCF904E03A4B6A
:1058D0002246002100F022FAFAF7FDFE06460F46A6
:1058E000364A4FF081410198FDF750FE0546324B94
:1058F00022460021019800F011FA2946FAF754FFD8
:10590000019805D22C4B2246002100F007FA04E052
:105910002A4A4FF08141FDF739FEFAF7DCFE0546D1
:105920000C4642464B4650465946FAF7FFFE02D215
:105930005046594601E040464946804689462A4637
:10594000234630463946FAF7F1FE01D32E46274664
:1059500042464B461AA0CDE90067FEF71BFD002228
:105960001B4B30463946FAF75AFD05460C460022D5
:10597000184B40464946FAF752FD2A462346FAF7A5
:10598000A7FC044614480D46007920B922460B4670
:1059900012A0FEF7FFFC20462946BDE8FC5FFAF79F
:1059A00062BE0000000080C0000070C1000020C185
:1059B0000000C0C00000C040000020410000704155
:1059C000693A252E3266206A3A252E32660D0A0083
:1059D00000002EC000002E40980000205365727613
:1059E0006F5F61646A7573743A20252E32660D0A02
:1059F000000000002DE9FC5F6A4FDFF8AC816B4EC0
:105A00006B4DDFF8B091FAF7A9FE00232A46314624
:105A1000019000F083F904463A4641460198FEF7AA
:105A20009EF92146FAF7C0FE019804D23A46414653
:105A3000FEF795F904E000232A46314600F06EF99E
:105A4000FAF749FE82468B464FF080434C46019858
:105A50005A422946CDF8009000F014F90746002379
:105A60002A463146019800F059F93946FAF79CFE6A
:105A7000019805D200232A46314600F04FF906E08E
:105A80004FF080435A422946009400F0FBF8FAF7A1
:105A900022FE80468946484B22460021019800F0AC
:105AA0003DF94FF0804306465F4201983A46294649
:105AB000009400F0E7F83146FAF776FE019806D236
:105AC0007B423A462946009400F0DCF804E03A4B69
:105AD0002246002100F022F9FAF7FDFD06460F46A6
