:020000040800F2
:100000005807002001010008EF330008592B0008B1
:10001000ED33000845090008313A000800000000EF
:100020000000000000000000000000005334000841
:100030008B0900080000000051340008D934000882
:100040001B0100081B0100081B0100081B01000820
:100050001B0100081B0100081B0100081B01000810
:100060001B0100081B0100081B01000849090008CA
:100070001B010008550900081B0100081B010008AE
:100080001B0100081B0100081B0100081B010008E0
:100090001B0100081B0100081B0100081B010008D0
:1000A0001B0100081B0100081B0100081B010008C0
:1000B0006D3500081B0100081B0100081B0100082A
:1000C0001B0100081B0100081B0100081B010008A0
:1000D0001B0100081B0100081B010008253A00084D
:1000E0008D0900081B0100081B010008DFF80CD077
:1000F00000F0F0FB00480047714600085807002058
:100100000648804706480047FEE7FEE7FEE7FEE7B1
:10011000FEE7FEE7FEE7FEE7FEE7FEE769350008DB
:10012000ED000008202A04DB203A21FA02F0002129
:10013000704721FA02F3D040C2F1200291400843F7
:100140001946704740EA01039B0703D009E008C93C
:10015000121F08C0042AFAD203E011F8013B00F88C
:10016000013B521EF9D27047D2B201E000F8012BD8
:10017000491EFBD270470022F6E710B513460A4627
:1001800004461946FFF7F0FF204610BDF0B480EAA0
:100190000102D40F4200B2EB410F02D202460846E0
:1001A00011464A0042D0C30DDDB2C1F3C752AD1AA9
:1001B000202D35DAC1F3160141F4000204B1524298
:1001C000C5F1200602FA06F12A411044B3EBD05FD4
:1001D00023D0C4B1012DA0EBC35009DCF0BC4FF01B
:1001E000004202EAC352DBB200F5000000F0CFBAD1
:1001F000400000F1807000EBC350A0F1807040EA35
:10020000D170490009E0490841EAC071A0EBC35030
:1002100000F50000400800EBC350F0BC00F0AEBA9F
:100220006142012202EB4101001BF6E7F0BC70477E
:1002300081F00041AAE780F00040A7E730B480EAEF
:10024000010202F0004530F0004221F0004013D0DE
:1002500090B1C30DD40DC2F31601C0F31600E41A19
:1002600041F4000140F400027D34914201D3641C4A
:1002700000E04900002C02DA30BC002070474FF447
:1002800000000023914201D3891A034340084FEA3A
:100290004101F7D151B1914202D14FF0004105E047
:1002A00002D24FF0010101E06FF0010103EBC450F5
:1002B000284430BC00F062BA420005D0C0F3C752F7
:1002C0005242914201DC0020704700EBC150704760
:1002D0002DE9FE4F804681EA0300C00F0C460090D6
:1002E00021F0004123F00045B8EB0200A94105D2FE
:1002F0004046214690461C460B46024623F00040ED
:10030000104347D0270DC7F30A00C3F30A510290E8
:10031000401A019040286BDAC3F3130040F4801BAD
:100320000098924620B10023D2EB030A63EB0B0B3B
:1003300001985946C0F14002504600F0FEF90646C9
:100340000D4650465946019A00F006FA10EB080097
:100350006141002487EA115284EAE7731A4340D0CE
:10036000009A62B3019A012A4FEA075215DC001B7A
:1003700061EB02014FF0004202EA0752CDE9004270
:10038000001C41F5801132462B4600F03DFA03B0C7
:10039000BDE8F08F40462146F9E7001B61EB020102
:1003A000001C41F5801300185B412018A2F50017CE
:1003B00047EB030140EAD570B6196D4111E06D08B5
:1003C0004FEA360645EAC0754FEA0752001B61EB5B
:1003D0000201001C41F5801149084FEA3000001964
:1003E000514132462B4603B0BDE8F04F00F0FDB955
:1003F0000098012240000023D0EB020263EBE0737F
:10040000009821464FEAE074B8EB000061EB04016C
:10041000E9E783F000435BE781F0004158E72DE90D
:10042000FE4F81EA030404F0004421F000410094EF
:100430004FF0000B23F0004350EA01045ED052EA73
:1004400003045BD0C3F30A54C1F30A552C44A4F24D
:10045000F3340194A0FB0254C1F3130141F4801161
:10046000C3F3130343F4801301FB024400FB034E68
:10047000840A970A44EA815447EA8357A4FB076831
:1004800002958D0A05FB07854FEA932C04FB0C545B
:100490002705029D4FEA065847EA1637B5EB0805CF
:1004A0006EEB070C870E920E47EA811742EA831221
:1004B000A7FB0201B6EB0B0164EB00042B0D43EA32
:1004C0000C335E1844EB1C50DA465146E7FB020140
:1004D000C5F313044FEA0B3343EA14534FEA0432D3
:1004E000019C43EA0603A4F10C040294009CCDE9AC
:1004F00000B400F089F903B0BDE8F08F0020014698
:10050000F9E72DE9F04D81EA030404F0004B21F0F6
:10051000004514464FF0000A23F0004150EA05025E
:1005200020D054EA01021DD0C5F30A570246C5F394
:100530001303C1F31300C1F30A5640F4801543F4CA
:100540008013A7EB0608101BD64608F2FD3873EBA4
:10055000050002D308F1010801E092185B41B8F1EF
:10056000000F03DA00200146BDE8F08D00204FF4B3
:100570008011064684460EE0171B73EB050705D372
:10058000121B63EB050306434CEA010C49084FEAD2
:10059000300092185B4150EA0107EDD152EA0300A6
:1005A00012D082EA040083EA0501084305D0101B3B
:1005B000AB4106D20122002306E000224FF00043A7
:1005C00002E06FF0010253101AEB06004CEB0851E9
:1005D00010EB0A0041EB0B01BDE8F04D00F005B94E
:1005E00096230022114600F0D2B8C1F30A5210B58A
:1005F000C1F3130140F2FF3341F480119A4201DA52
:10060000002010BD40F233439A42A2F2334203DC91
:100610005242FFF787FD10BD904010BD00F0004230
:1006200030F000400AD0C10D01F56071C0F3160032
:1006300042EA0151C20840071143704700200146B9
:100640007047000030B5041E71F1000404DB4FF068
:100650000044404264EB0101141E73F1000405DB09
:100660001C464FF00043524263EB0403994208BF1B
:10067000904230BD01F0004330B421F0004150EA17
:10068000010206D00A0DA2F56072C1F31301002A1F
:1006900002DC30BC00207047440F44EAC104C100B2
:1006A000E01830BC00EBC25000F068B830B50B4623
:1006B000014600202022012409E021FA02F59D4292
:1006C00005D303FA02F5491B04FA02F52844151E66
:1006D000A2F10102F1DC30BD2DE9F05F05460020FA
:1006E00092469B4688460646814640241BE02846A3
:1006F000414647462246FFF715FD53465A46C01A63
:10070000914110D311461846224600F016F82D1AD2
:1007100067EB01084F4622460120002100F00DF84A
:1007200017EB00094E41201EA4F10104DFDC48460E
:1007300031462A464346BDE8F09F202A04DB203A92
:1007400000FA02F1002070479140C2F1200320FA24
:1007500003F3194390407047202A06DBCB17203A59
:1007600041FA02F043EAE07306E041FA02F3D040B6
:10077000C2F1200291400843194670470029A8BFE2
:100780007047401C490008BF20F00100704710B4BA
:10079000B0FA80FC00FA0CF050EA010404BF10BC6F
:1007A000704749B1CCF1200421FA04F411FA0CF19C
:1007B00018BF012121430843A3EB0C01CB1D4FEAD5
:1007C00000614FEA102042BF002010BC704700EBD0
:1007D000C35010440029A4BF10BC7047401C4900FE
:1007E00008BF20F0010010BC704710B5141E73F153
:1007F000000408DA401C41F1000192185B411A43E1
:1008000001D120F0010010BD2DE9F04D92469B462C
:1008100011B1B1FA81F202E0B0FA80F220329046D2
:10082000FFF78BFF04460F4640EA0A0041EA0B013E
:1008300053465A46084313D0114653EA010019D0D3
:10084000C8F140025046FFF76DFC05460E46504683
:1008500059464246FFF771FF084305D0012004E0E6
:1008600020463946BDE8F08D0020054346EAE07693
:100870002C4337430A986305E40AA0EB08000022E2
:10088000FD0A44EA47540A3002D500200146E9E750
:10089000010510196941DDE9084500196941BDE804
:1008A000F04DA2E7C1F30A52C1F3130140F2FF3346
:1008B00041F480119A4202DA00200146704740F26A
:1008C00033439A42A2F2334202DC5242FFF72ABC7F
:1008D000FFF733BF064C074D06E0E06840F0010328
:1008E00094E8070098471034AC42F6D3FFF702FCB7
:1008F000484800086848000870B5044600688168E8
:10090000C943C9071CD1816821F00101816000F051
:100910004FFC05460FE000BF00F04AFC401B0228D8
:1009200009D9A06A40F01000A062E06A40F001001E
:10093000E062012070BD20688068C043C007EBD032
:10094000002070BDFEE70000014800F0DBB90000A8
:1009500014030020014800F0D5B90000D0020020A7
:1009600030B590F840500124AC40C56B6C60046811
:1009700063604368102B036803D099600068C2600D
:1009800030BD9A600068C16030BD70474FF40050C0
:1009900000F004BB01A003F04DB800005B535953B5
:1009A00054454D5D204572726F722120506C656117
:1009B000736520636F6E746163742056696E63653E
:1009C0006E740D0A00000000F8B50024009490F841
:1009D00024202546012A12D0012280F824204A68CA
:1009E0001F23072A0DD20668776B521E02EB820284
:1009F00093409F430B6893401F43776319E00220A5
:100A0000F8BD06680D2A0AD2376BD21F02EB8202AC
:100A100093409F430B6893401F43376309E0F76A95
:100A20000D3A02EB820293409F430B6893401F43B1
:100A3000F7620A68072306680A2A0AD3F7680A3A9F
:100A400002EB420293409F438B6893401F43F76041
:100A500008E0376902EB420293409F438B68934062
:100A60001F4337610A68102A01D0112A20D1124B86
:100A700002689A4217D193681B0219D4936843F411
:100A8000000393600968102912D10C490C4A0968C7
:100A9000B1FBF2F101EB8101490000E0491E009138
:100AA0000029FBD104E0816A41F020018162012428
:100AB00080F824502046F8BD002401402400002086
:100AC00040420F002DE9F0414FF0000704003D4681
:100AD0007ED0A06A002628B9E66284F82460204609
:100AE00000F07EF82046FFF707FFA16AC90600D490
:100AF00020B1A06A40F01000A06269E0A16A21F470
:100B0000885141F00201A1626268E169237B0A43D6
:100B100047EA43010A43A1684FF48077B94209D0FC
:100B2000012907D05FF0000194F814C0BCF1010F57
:100B300002D00AE03946F7E7F3B1A36A43F0200395
:100B4000A362E36A43F00103E3622368D3F804C0BD
:100B50002CF4694C4CEA010CC3F804C021688B6882
:100B6000DFF870C003EA0C0313438B60A168B9423D
:100B70000BD0012909D00CE0DFF85CC0A3690CEBB5
:100B800043330B4343F40061DFE7218A0D05A5F5EC
:100B900080152168CB6A23F470032B43CB62216854
:100BA00089680E4B1940914208D1E662A16A21F092
:100BB000020141F00101A162BDE8F081A06A20F0CC
:100BC000020040F01000A062E06A40F00100E06224
:100BD0000120F1E7FDF7E1FF00E0FFFFFE0E1FFF40
:100BE00070B586B0002506460095019502950395DF
:100BF0000068194988422DD11849886940F400706D
:100C00008861886900F400700490886940F00400ED
:100C100088618869694600F0040004900320009010
:100C200001900F4800F0C6F90F4C0E48C4E90005CA
:100C30008020C4E902508000206180006061202093
:100C4000C4E90605204600F007F908B1FFF7A2FE47
:100C50003462666206B070BD00240140001002409C
:100C600000080140080002401403002010B590F86D
:100C700021100024022903D00421816301243DE0D6
:100C800001680A6822F00E020A6001680A6822F010
:100C900001020A601A4A0168914201D1012121E052
:100CA000174A1432914201D110211BE0144A283214
:100CB000914201D1891515E0114A3C32914201D18E
:100CC00089140FE00E4A5032914202D14FF4803124
:100CD00008E00B4A6432914202D14FF4801101E0E6
:100CE0004FF08071064A083A5160012180F82110C6
:100CF000002180F82010416B01B18847204610BDCB
:100D0000080002402DE9F05FC16B0C6801680B68B8
:100D1000D0F840C0042202FA0CF2494DDFF824A1B9
:100D2000494E4A4FDFF828B1DFF828E122422CD0A3
:100D30005A072AD50A68920603D40A6822F00402E8
:100D40000A600168A94201D1042219E0514501D18C
:100D5000402215E0B14202D14FF4806210E0B94266
:100D600002D14FF480420BE0594502D14FF480226A
:100D700006E0714502D14FF4800201E04FF080623D
:100D80002F4908394A60C16A3BE04FF0020808FA6F
:100D90000CF818EA040F4FF000094FF0010235D0AB
:100DA0005FEA837832D50B689B0605D40B6823F085
:100DB0000A030B6080F821200168A94201D10222B8
:100DC00019E0514501D1202215E0B14202D14FF482
:100DD000007210E0B94202D14FF400520BE05945C5
:100DE00002D14FF4003206E0714502D14FF40012F7
:100DF00001E04FF00072124908394A6080F82090F3
:100E0000816A00291AD0BDE8F05F0847082505FA75
:100E10000CF5254212D01B0710D50B6823F00E03EA
:100E20000B6090F84010C36B02FA01F159608263C5
:100E300080F8212080F82090016BE2E7BDE8F09F68
:100E4000080002401C000240300002404400024002
:100E5000580002406C00024030B528B308C813495E
:100E600014221944B1FBF2F18900C1631049816376
:100E7000022141771A6843F6F0718A43D0E90014E1
:100E80002143D0E902452C432143046921434469AD
:100E900021438469214311431960002141630122E8
:100EA00042770177084630BD012030BDF8FFFDBF15
:100EB0000000024070B5044690F82000002501288B
:100EC0000CD0012084F8200094F821600020012E2D
:100ED00006D084F820000225284670BD022070BD8F
:100EE000022684F82160A0632068066826F00106C7
:100EF00006602046FFF734FDE06A0028206801689C
:100F000002D041F00E0106E021F0040101602068EA
:100F1000016841F00A0101602068016841F00101A7
:100F20000160D9E770B5044600F042F90546601C3F
:100F300002D004480078044400F03AF9401BA04273
:100F4000FAD370BD1800002070B5B0F5005F1FD156
:100F5000104D00220121284600F024F90022022130
:100F6000284600F01FF9002003F0EDF90A4C216833
:100F7000486300220421284600F014F900220821C9
:100F8000284600F00FF9002003F0DDF9216888639E
:100F900070BD00000010014030010020044910B570
:100FA0000A68024202D00860FFF7CEFF10BD0000C1
:100FB000140401402DE9F84FDFF8B891002409F13D
:100FC000040A0AF1040B23460F270BF1040EC9E0B3
:100FD0000125A5402A40AA427DD1674ED1F804C020
:100FE000ACEB0608B44532D014DCBCF1030F3AD0A8
:100FF00009DCBCF1000F2AD0BCF1010F1CD0BCF100
:10100000020F31D11DE0BCF1110F17D0BCF1120F4E
:101010002AD119E0B8F5881F19D006DCB8F5803F51
:1010200015D0B8F5801F1FD111E0B8F5001F0ED004
:10103000B8F5041F18D10AE0CB6815E0CB681B1D7A
:1010400012E0CB6808330FE0CB680C330CE08B6800
:101050002BB1012B4FF0080303D0456104E00423BA
:1010600002E0056100E00023FF2A01D8064601E006
:1010700000F104064FEA840501D9A5F12005D6F850
:10108000008007FA05FC28EA0C0803FA05F548EA8F
:101090000508C6F800804D68ED0062D5374DAE6991
:1010A00046F00106AE61AD6924F0030605F00105C6
:1010B0000095334D06EB050CDCF80850A607360FFB
:1010C00007FA06F825EA0805DFF8B880404503D19D
:1010D0004FF0000817E044E0DFF8AC80404502D153
:1010E0004FF001080FE0DFF8A480404502D14FF037
:1010F000020808E0DFF89880404502D14FF003086D
:1011000001E04FF0040808FA06F848EA0508CCF8B0
:1011100008804D68D9F80060ED034D4601D51643AF
:1011200000E096432E604D68DAF80060AD03554646
:1011300001D5164300E096432E604D68DBF8006051
:10114000ED025D4601D5164300E096432E604D68E2
:10115000DEF80060AD02754601D5164300E0964307
:101160002E60641C0D682A46E5407FF431AFBDE86F
:10117000F88F000000040140000011100010024030
:101180000000014000080140000C01400010014037
:1011900000140140C26821EA02030A4043EA024106
:1011A000016170470AB1016170470904FBE7000063
:1011B00001488068704700001800002070B50400E6
:1011C00025D094F83D00002520B984F83C502046F5
:1011D00000F070FA242084F83D002068016821F0B6
:1011E000010101602068016841F40041016020684C
:1011F000016821F40041016000F084FC4D4A6168FF
:10120000914201D84C4900E04C49884201D201206A
:1012100070BD4B492368B0FBF1F15E6826F03F06D4
:101220000E435E606368934206D94FF49673594348
:101230004FF47A73B1FBF3F12368491C1E6A26F060
:101240003F06314319626168914210D84900401E3F
:10125000B0FBF1F2521CC2F30B02042A01D20420AB
:1012600022E0B0FBF1F0401CC0F30B001CE0A268D0
:10127000F2B301EBC10303EB0116431EB3FBF6F31C
:101280005B1C43F480431B0549D092B301EBC102C0
:1012900002EB0111401EB0FBF1F0401CC0F30B004B
:1012A00040F4804040F400402168CA694CF6FF7366
:1012B0009A431043C861D4E90710014320680268CB
:1012C00022F0C00211430160D4E903010143206808
:1012D000826848F2FF339A4311438160D4E90501E3
:1012E00008432168CA6822F0FF021043C86001E089
:1012F0000EE016E02068016841F0010101602564FC
:10130000202084F83D00256384F83E50002070BD05
:1013100001EB4106431EB3FBF6F35B1CB3E7012070
:10132000C2E701EB4101401EB0FBF1F0401CC0F3ED
:101330000B00B7E7A086010080841E0000093D0075
:1013400040420F002DE9F84F0025DDF8289098461F
:1013500017468A4604460095FFF72AFF064694F88A
:101360003D0020287AD11923012283492046009686
:1013700001F0F4FC0028F5D194F83C0001286DD070
:10138000012084F83C0020680168C90703D1016886
:1013900041F0010101602068016821F400610160F1
:1013A000222084F83D00102084F83E002564676206
:1013B000A4F82A80608D20857048E06233464A4652
:1013C0005146204601F0E0FB00287DD1208DDFF85A
:1013D000B081202768B1012814D002282068016854
:1013E0001ED041F4806101602068416980690090ED
:1013F000B5E02068416981690091016841F400719C
:101400000160ACE02068016821F48061016072B67F
:101410002068416981690091016841F400710AE026
:1014200041F40061016072B62068416981690091F0
:10143000016821F48061016062B690E0032868D8F9
:1014400001280CD002284B464FF0000241462046AE
:1014500000960FD001F082FCB0BB10E08AE032466B
:101460004946204601F0F9FC70BB20680069616ABA
:1014700008706BE001F072FC30BB72B634E020689B
:10148000016821F48061016072B620680069616AB8
:101490000870606A401C6062208D401E2085608D4F
:1014A000401E6085374846F2A8110068B0FBF1F095
:1014B000C0EBC00000EB80000090401E009008D000
:1014C00020684069C04300E029E040070CD500983F
:1014D000F3E744F8305F6773A573206940F020009C
:1014E000206162B625731AE02068016841F400713A
:1014F000016020680069616A0870606A401C60626F
:10150000218D491E2185618D491E618562B6216844
:101510001AE032464946204601F09FFC10B10120F6
:10152000BDE8F88F20680069616A0870606A401C35
:101530006062218D491E2185618D491E618521686A
:101540004A69D24352070AD409690170606A401C93
:101550006062208D401E2085608D401E6085208D3C
:1015600000287FF46BAF84F83D7084F83E5084F817
:101570003C50D5E70220D3E7020010000000FFFF37
:1015800004000100240000202DE9F84F1F4690467A
:101590008A460446DDF82890FFF70AFE054694F8CF
:1015A0003D0020287FD11923012240492046009583
:1015B00001F0D4FB002876D194F83C00012872D0C9
:1015C000012084F83C0020680168C90703D1016844
:1015D00041F0010101602068016821F400610160AF
:1015E000212084F83D00102084F83E000026266467
:1015F000C4F824806785608D20852D48E0622B46E5
:101600004A465146204601F035FB90B920684169B1
:101610008069009036E02A464946204601F050FC99
:1016200050B1206C042804D12068016841F4007195
:1016300001600120BDE8F88F606A216800780861C8
:10164000606A401C6062618D491E6185218D491E62
:1016500089B2218522685369DB435B070BD451B102
:1016600000781061606A401C6062608D401E608579
:10167000208D401E20852A464946204601F048FB21
:101680000028CED1208D0028C5D154F83D0B01682B
:1016900041F400710160202004F81E09E6776677A6
:1016A0000020C7E7FFE70220C4E7000002001000A7
:1016B0000000FFFF30B585B000210091019102913B
:1016C0000391214D0368214C122103222048AB4293
:1016D0001DD1A36943F00803A361A369039203F03A
:1016E000080304931302CDE900316946FFF762FC59
:1016F0001848416841F0E06141F002014160E06951
:1017000040F40010E061E06900F4001019E0124DAF
:10171000AB4217D1A36943F00803A361A369039205
:1017200003F0080304934FF44063CDE900316946A8
:10173000FFF740FCE06940F48000E061E06900F4FC
:101740008000049005B030BD0054004000100240FD
:10175000000C0140000001400058004070B504003A
:1017600011D021684CF6CC400860216845F25550F4
:101770000860D4E9000141602168A0688860FFF733
:1017800017FD054609E0012070BD00BFFFF710FD01
:10179000401B262801D9032070BD2068C06800289E
:1017A000F4D121684AF6AA200860002070BD0068C4
:1017B0004AF6AA21016000207047000002488168B3
:1017C000027811448160704718000020074810B566
:1017D000016841F010010160032000F075F800205D
:1017E00000F006F800F024F8002010BD00200240B0
:1017F00070B50D4D04464FF47A712878B1FBF0F0C6
:101800000A490968B1FBF0F000F062FB48B9102CFE
:1018100007D200222146501E00F036F800206C60EE
:1018200070BD012070BD00001800002024000020C1
:101830000C4808B5816941F001018161816901F0BD
:1018400001010091C16941F08051C161C06900F09E
:10185000805000900448416821F0E06141F000713F
:10186000416008BD0010024000000140002809DB73
:1018700000F01F02012191404009800000F1E020AA
:10188000C0F8001170470000F0B40E4B1B680C4606
:10189000C3F30223C3F10705042D00D90425191D44
:1018A000072901D2002300E0DB1E012606FA05F11C
:1018B000491E214099409E40761E16403143F0BC9F
:1018C00002F0C8B80CED00E0064900F00702086815
:1018D0004FF6FF03184040EA0220034A1043086015
:1018E000704700000CED00E00000FA052DE9F84318
:1018F00005460078354CC00754D0E0690026C0008A
:1019000008D4E06940F08050E061E069012600F011
:10191000805000902E480168C90512D401688046A5
:1019200041F480710160FFF743FC074605E000BF0A
:10193000FFF73EFCC01B642823D8D8F80000C00580
:10194000F6D5206A10F4407021D0A98801F44071C6
:1019500081421CD0206A1F49012220F440700A6095
:1019600000220A602062C00711D0FFF721FC074661
:1019700041F2883808E000BFFFF71AFCC11B41455F
:1019800002D90320BDE8F883206A8007F4D5206AD5
:10199000696820F44070084320621EB1E06920F0BD
:1019A0008050E0612878800705D56068A96820F438
:1019B0004040084360602878C00605D56068E96843
:1019C00020F48000084360600020DBE70010024044
:1019D00000700040400442422DE9F0470F460500E8
:1019E00061D0434E306800F00700B84209D2306839
:1019F00020F0070038433060306800F00700B8423C
:101A000051D128683B4C810712D5400703D5606847
:101A100040F4E06060602878000703D5606840F417
:101A2000605060606068A96820F0F0000843606062
:101A30002878C00728D06868012810D021680228BB
:101A400010D0890700292EDA616821F003010143D3
:101A50006160FFF7ADFB804641F288390DE02168F7
:101A60008903EFE78901EDE7FFF7A2FBA0EB08018F
:101A7000494502D90320BDE8F0876068696800F035
:101A80000C00B0EB810FEFD1306800F00700B842D6
:101A90000BD9306820F0070038433060306800F020
:101AA0000700B84201D00120E5E72878400705D5B6
:101AB0006068E96820F4E060084360602878000707
:101AC00006D56068296920F4605040EAC100606072
:101AD00000F038F86168084AC1F30311515CC8404E
:101AE0000649086006480068FFF782FE0020C2E74A
:101AF000002002400010024030480008240000206E
:101B00001C0000200448054900684968044AC1F3E4
:101B10000221515CC84070472400002000100240A0
:101B2000404800080448054900684968044AC1F370
:101B3000C221515CC84070472400002000100240C0
:101B40004048000812A185B00FC98DE80F0014A00D
:101B5000144A006804905168134801F00C03042BE8
:101B600010D0082B0ED1C1F38343C9031DF8030025
:101B70000AD5516804AAC1F34041515C0A4A504356
:101B8000B0FBF1F005B0704708494843FAE70000A0
:101B900002030405060708090A0B0C0D0E0F1010AE
:101BA000010200000010024000127A0000093D000E
:101BB0002DE9F84F040070D02078C04DC00749D0FF
:101BC0006868C0F38100012807D06868C0F381000D
:101BD000022809D16868C00306D52868800339D572
:101BE00060680028E7D035E06068B0F5803F0BD032
:101BF00010B1B0F5A02F11D0286820F480302860F3
:101C0000286820F4802002E0286840F480302860B2
:101C1000606890B1FFF7CCFA06460AE0286840F405
:101C200080202860F0E700BFFFF7C2FA801B64281D
:101C300073D828688003F7D50CE0FFF7B9FA064699
:101C400005E000BFFFF7B4FA801B6428F0D82868CD
:101C50008003F7D420789A4E80074FF001094FF0A7
:101C6000000839D5686810F00C0F07D06868C0F319
:101C70008100022809D16868C00306D4286880075B
:101C800014D52069012808D110E02069B0B1C6F848
:101C90000090FFF78DFA074605E00AE1FFF788FAA2
:101CA000C01B0228C4D828688007F7D52868616956
:101CB00020F0F80040EAC10028600DE0C6F800807E
:101CC000FFF776FA074604E0FFF772FAC01B022816
:101CD00023D828688007F7D4207800072CD57948C6
:101CE000A169D9B1C0F80090FFF762FA074604E095
:101CF000FFF75EFAC01B02280FD8686A8007F7D585
:101D000071484FF4FA510068B0FBF1F0009000BF49
:101D10000098411E0091FAD20EE080E0C0F80080E9
:101D2000FFF746FA074604E0FFF742FAC01B022815
:101D300075D8686A8007F7D42078400760D5E869CD
:101D40000027C00008D4E86940F08050E861E869E5
:101D5000012700F0805000905C480168C90513D449
:101D60000168834641F480710160FFF721FA8246E1
:101D700006E000BFFFF71CFAA0EB0A0064284ED86B
:101D8000DBF80000C005F5D5E06801280AD008B1ED
:101D9000052813D0286A20F001002862286A20F064
:101DA000040002E0286A40F001002862E06841F285
:101DB000883B98B1FFF7FCF982460BE0286A40F0B7
:101DC00004002862EEE700BFFFF7F2F9A0EB0A017A
:101DD00059455AD8286A8007F6D50CE0FFF7E8F98C
:101DE000824605E0FFF7E4F9A0EB0A0159454CD81B
:101DF000286A8007F6D41FB1E86920F08050E861B6
:101E0000E06988B36968C1F38101022944D00228DE
:101E1000C6F8608004D0FFF7CBF9044638E034E020
:101E2000FFF7C6F9074604E0FFF7C2F9C01B022816
:101E30002BD828688001F7D4206AB0F5803F05D1FF
:101E40006868A16820F4003008436860D4E908019C
:101E50000843696821F4741108436860C6F860900B
:101E6000FFF7A6F9044606E025E000BFFFF7A0F95A
:101E7000001B022809D828688001F7D51BE000BFA5
:101E8000FFF796F9001B022802D90320BDE8F88F5E
:101E900028688001F4D40EE00128F7D06868226A2F
:101EA00000F48031914204D1616A00F470108842DC
:101EB00001D00120EAE70020E8E70000001002401E
:101EC0000000424280044242240000200070004092
:101ED00010B5401EB0F1807F01D3012010BD4FF03E
:101EE000E02460610F21601701F0B4FD0020A061C3
:101EF00007202061002010BD7047704710B590F892
:101F00003C20012A22D0012280F83C20CA688C683B
:101F100022F4407222434C6822F4806222430C680F
:101F200022F4006222430C6922F4805222434C695D
:101F300022F400522243C969002322F480420A435A
:101F400001684A6480F83C30002010BD022010BDBA
:101F500070B590F83C20012A26D0012480F83C403E
:101F6000022280F83D2003685A689D6822F07006BE
:101F70000A6832435A600D4B02689A4208D0B2F1A7
:101F8000804F05D00A4B9A4202D00A4B9A4204D1A4
:101F9000496825F080031943916080F83D40002195
:101FA00080F83C10084670BD022070BD002C014036
:101FB000000400400008004010B5040003D094F86D
:101FC0003D0010B107E0012010BD002084F83C0066
:101FD000204600F01FF8022084F83D00211D2068F3
:101FE00001F0CAFA012084F8460084F83E0084F823
:101FF0003F0084F8400084F8410084F8420084F8EF
:10200000430084F8440084F8450084F83D00002033
:1020100010BD000008B5114A01681148914208D16D
:10202000816941F400618161806900F40060009081
:1020300008BDB1F1804FFBD1C16941F00101C1611F
:10204000C069002200F00100009011461C20FFF73B
:102050001BFCBDE808401C20FFF708BC002C014019
:102060000010024090F83D10012901D00120704776
:10207000022180F83D100168CA6842F00102CA607E
:1020800000680B49884208D0B0F1804F05D009495B
:10209000884202D00849884204D1816801F00701D2
:1020A000062903D0016841F001010160002070475A
:1020B000002C0140000400400008004070B50446B8
:1020C00090F83C00012817D0012584F83C500220EC
:1020D00084F83D002068826822F0770222F47F4273
:1020E00082600868502830D00DDC20284DD005DCF7
:1020F00098B310283BD148E0022070BD302844D06E
:10210000402834D139E0602828D0702806D0B0F5B6
:10211000805F2CD0B0F5005F29D10AE0CB68D1E90F
:102120000121206801F06BFA2068816841F0770195
:1021300009E0CB68D1E90121206801F060FA20684C
:10214000816841F48041816011E0CA684968206873
:1021500001F00AFB5021206807E016E0CA684968D0
:10216000206801F012FB6021206801F052FA84F827
:102170003D50002084F83C0070BDCA684968206862
:1021800001F0F2FA40212068EFE72268014610468C
:10219000EBE72DE9F0410D46040003D094F83D0033
:1021A00018B108E00120BDE8F081002084F83C006F
:1021B000204600F041F8022084F83D002068816844
:1021C00044F2070291438160211D206801F0D4F997
:1021D000226890689169166A2B68AF69034340F2E0
:1021E0000330814341EA0721A868EF6908434FF6AD
:1021F000FC418843E96840EA0720014328692F6AC7
:10220000000140EA0730084369686D6926F022063C
:1022100046EA0515294393602268906154F8460BFD
:102220000162012004F81F09E0752076E07620772E
:10223000A0750020B7E7000000B585B0002100912F
:102240000191029103911A4B02681A48C0219A42E7
:1022500013D1C26942F00202C261C26902F00202F5
:102260000492826942F0040282618069009100F068
:10227000040004906946104815E0104B9A4214D1AE
:10228000C26942F00402C261C26902F0040204920F
:10229000826942F0080282618069009100F00800C2
:1022A000049069460648FEF785FE05B000BD0000B3
:1022B00000040040001002400008014000080040F7
:1022C000000C0140704770B50446006801694FF08A
:1022D0000005C943890715D4C168C943890711D4CA
:1022E000E91E01610120207720688069800720466F
:1022F00002D0FFF7E7FF04E000F0BEF8204600F050
:102300004DF9257720680169C943490717D4C16889
:10231000C943490713D46FF00401016102202077FB
:102320002068806910F4407F204602D0FFF7CAFF82
:1023300004E000F0A1F8204600F030F9257720688D
:102340000169C943090716D4C168C943090712D4F2
:102350006FF008010161042020772068C0698007C0
:10236000204602D0FFF7AEFF04E000F085F82046DB
:1023700000F014F9257720680169C943C90617D40C
:10238000C168C943C90613D46FF010010161082068
:1023900020772068C06910F4407F204602D0FFF704
:1023A00091FF04E000F068F8204600F0F7F8257788
:1023B00020680169C943C90708D1C168C943C90771
:1023C00004D1891E0161204600F038F920680169B6
:1023D000C943090609D4C168C943090605D46FF089
:1023E000800101612046FFF787FD20680169C9432C
:1023F000490609D4C168C943490605D46FF04001B4
:102400000161204600F03CF920680169C943890652
:102410000BD4C168C943890607D46FF0200101615C
:102420002046BDE87040FFF768BD70BD00B585B0BF
:102430000021009101910291039100680B498842AB
:1024400012D10B48816941F00401816180696946BC
:1024500000F0040004904FF44070009002200190BE
:1024600003900448FEF7A6FD05B000BD002C014016
:102470000010024000080140704770B5044690F813
:102480003C000D4601280AD0012084F83C0042B1EE
:10249000042A18D0082A2AD00C2A4DD139E002206B
:1024A00070BD206801F0BEF82068816941F0080124
:1024B00081612068816921F004018161206881695E
:1024C0002A69114311E0206801F0D4F8206881697D
:1024D00041F4006181612068816921F4806181613A
:1024E000206881692A6941EA0221816124E020682B
:1024F00001F0ECF82068C16941F00801C161206871
:10250000C16921F00401C1612068C1692A691143D0
:1025100011E0206801F006F92068C16941F400610A
:10252000C1612068C16921F48061C1612068C1690D
:102530002A6941EA0221C161002084F83C0070BD93
:1025400010B5040003D094F83D0010B107E001205D
:1025500010BD002084F83C00204600F01EF8022048
:1025600084F83D00211D206801F006F8012084F860
:10257000460084F83E0084F83F0084F8400084F868
:10258000410084F8420084F8430084F8440084F851
:10259000450084F83D00002010BD704770470000E2
:1025A00010B50446022249B104290ED0082913D0DF
:1025B00094F84100012816D0012010BD94F83E0087
:1025C0000128F9D184F83E200FE094F83F0001285B
:1025D000F2D184F83F2008E094F840000128EBD1C4
:1025E00084F8402001E084F841200122206800F0B6
:1025F000F9FF0F492068884203D1426C42F400423F
:1026000042642068884208D0B0F1804F05D0094963
:10261000884202D00849884204D1816801F007014C
:10262000062903D0016841F001010160002010BDBE
:10263000002C014000040040000800400E49884280
:1026400018D10E484168491C416041680A2291FB3B
:10265000F2F302FB131109B901210170416805224F
:1026600091FBF2F302FB1311002903D1817881F071
:1026700001018170704700007801002000000020F7
:102680007047704770B5026804461068D168536996
:1026900010F00F0F52D003F0010501F490762E4395
:1026A0005FD0C20705D0CA0503D5E26B42F0010234
:1026B000E263420705D5DA0703D0E26B42F002027B
:1026C000E263820705D5DA0703D0E26B42F0040229
:1026D000E263020707D501F020022A4303D0E26B30
:1026E00042F00802E263E26B002A33D0800604D590
:1026F000880602D5204601F0C1F820684069E16BE8
:10270000C0F38010090700D428B3204601F09FF8D9
:102710002068416949061AD5416921F040014161AB
:10272000606BA0B12D494163606BFEF79FFA0028F2
:1027300010D0606B416BBDE870400847830610D530
:102740008B060ED52046BDE8704001F097B82046B4
:10275000FFF797FF70BD2046FFF793FF0020E0636F
:1027600070BD03062BD50B0629D594F83900212816
:10277000F6D1A068B0F5805F01D12069B0B1206AC0
:10278000411C2162216800784860E08C401E0004F2
:10279000000CE084E4D12068C16821F08001C160B0
:1027A0002068C16841F04001C16070BD206A0088A6
:1027B000C0F308005060206A801C2062E5E74006F4
:1027C000F3D54806F1D5D168204621F04001D1600B
:1027D000202184F8391000F0BEF970BDAF37000831
:1027E00070B5040004D094F83900002510B106E05B
:1027F000012070BD84F83850204600F023F82420D2
:1028000084F839002068C16821F40051C160204675
:1028100001F07AF82068016921F490410161206893
:10282000416921F02A0141612068C16841F40051E9
:10283000C160E563202084F8390084F83A00002064
:1028400070BD000070B586B0002500950195029519
:1028500003950646354B0268354902209A4219D144
:10286000CA6942F40032CA61CA6902F400320492B1
:102870008A6942F004028A618969039001F00401C7
:1028800004910C21CDE9001069462A48FEF792FB1D
:1028900006B070BD284B9A42FAD1CA6942F4802230
:1028A000CA61CA6902F4802204928A6942F0100265
:1028B0008A618969214C01F0100104911915CDE953
:1028C00000100320039069462046FEF773FBE014D6
:1028D000CDE90005694620460295FEF76BFB1848D6
:1028E000416821F0300141F0E06141F010014160A8
:1028F000154C1448C4E900058020C4E90250256144
:102900004FF440506561C4E906502046FEF7A4FA32
:1029100008B1FEF73FF87463002211462720666273
:10292000FEF7B2FF2720FEF7A1FFB1E70044004009
:102930000010024000080140004800400010014023
:102940000000014030000240D0020020F8B50446EB
:1029500090F83A0020283CD1C1B3BAB394F83800BB
:10296000012836D0012084F83800A162A285002514
:10297000E563222084F83A00636B17489862636B22
:102980001648D862636B16481863606B134645633C
:102990000846666B216802463046091DFEF78AFA32
:1029A000206801684168009184F83850C16841F49A
:1029B0008071C1602068416941F001014161206876
:1029C000416941F0400141610020F8BDFFE701206D
:1029D000FBE70220F9E70000093800084538000845
:1029E000BF37000810B5184988422BD1174C207802
:1029F00000281FD0A1F519710F2201F10F00FDF77A
:102A0000A1FBA16812A001F015F815A001F012F8C1
:102A10001BA001F00FF81E491EA001F00BF801F0F9
:102A20002FFD20211D48FEF7B5FB00202070A06877
:102A3000401CA06016490F22BDE810400F39024823
:102A4000FFF784BF10BD00009002002000000020AE
:102A50004D53475F494E4445583A256400000000F5
:102A6000202053616D706C696E6720496E746572C9
:102A700076616C733A302E3173283130487A2900F0
:102A80002055415254332D444D412D52583D0000A4
:102A90003B0000202573200D0A00000000080140C3
:102AA000704700002DE9F843044690F839001F46AE
:102AB00016460D4620284CD1C5B1BEB194F8380059
:102AC000012846D0012084F838004FF00008C4F8EF
:102AD0003C80212084F83900FEF76AFBA6848146F9
:102AE000E684A068B0F5805F03D004E00120BDE873
:102AF000F883206928B12E465FF0000584F83880FD
:102B00000EE00026FAE78021204600F059FFA0B928
:102B1000AEB116F8010B21684860E08C401EE084DD
:102B2000E08C4B464FF0000200970028EBD14FF0AD
:102B30004001204600F044FF30B10320D7E735F8CC
:102B4000020BC0F30800E6E7202084F839000020DB
:102B5000CDE70220CBE77047FEE701684A69D24320
:102B600052050FD46FF480624A61002140F8301F93
:102B7000202242738173026942F0040202610173F0
:102B800001207047002070472DE9F84F0446C06AC5
:102B90001E4693460D4621680A6842F480620A6028
:102BA000082807D0012805D010F5803F02D0206BFF
:102BB000112804D12068016841F4807101604FF050
:102BC00001195B46002249462046009600F0C6F8EF
:102BD0004FF4007840B120680068C00501D5C4F802
:102BE00040800320BDE8F88F2069DFF884A0B0F5AD
:102BF000804F0FD00620216800EAD51747F0F0007B
:102C0000086133465A460AF10601204600F0DAF818
:102C100058BB03E0E8B240F001001CE02168E8B2D4
:102C2000086133465A465146204600F0CBF8E0B9D9
:102C30002068416981690091016841F480710160F7
:102C40005B46002249462046009600F087F800289F
:102C5000C1D147F0F1002168086133465A46514618
:102C6000204600F0AFF80028BCD00120BAE70000F1
:102C700002000100F8B50446C06A1E460D4617461C
:102C8000082807D0012805D010F5803F02D0206B1E
:102C9000122804D12068016841F480710160134654
:102CA00000224FF001112046009600F057F840B185
:102CB00020680068C00502D54FF40070206403202E
:102CC000F8BD2069B0F5804F0ED00620216800EADB
:102CD000D51040F0F000086133463A460B492046D3
:102CE00000F070F878B902E005F0FE0000E0E8B20C
:102CF00021680861054933463A46891F204600F09D
:102D000061F80028DCD00120F8BD000008000100B7
:102D100070B516460D4604460DE02046FFF71DFF30
:102D200008B1012070BD681C05D0FEF741FA801B78
:102D3000A84207D835B120684069C0434007ECD4A9
:102D4000002070BD002044F8300F20216173A07373
:102D5000216941F0200121612073E2E72DE9F0476C
:102D60001E4690460D460446C1F30747DDF8209005
:102D700008E0701C06D0FEF71BFAA0EB0900B04279
:102D80000FD876B12068012F18D0806925EA00009D
:102D90000004000C14D000214145EAD00020BDE819
:102DA000F087002044F8300F20216173A07321695F
:102DB00041F02001216120730120F0E74069E5E73F
:102DC0000121E9E72DE9F0479A4691460E4604466F
:102DD00000254FF02008C1F3074725E0206840692F
:102DE000C043400514D42068016841F400710160BB
:102DF00021686FF480604861256384F83D8084F821
:102E00003E50206C40F00400206484F83C501FE0E9
:102E1000B9F1FF3F08D0FEF7CBF9A0EB0A01494515
:102E20000CD8B9F1000F09D02068012F13D08069A8
:102E300026EA00000004000C0BD0CFE744F8305F16
:102E400084F80D80A573206940F02000206125736F
:102E50000120BDE8F0874069EAE72DE9F04100254F
:102E600090460E460446202717E04069C043C0063E
:102E70000CD454F8301B6FF01000486144F810591E
:102E80006777A577206A2062257717E0FEF790F92B
:102E9000A0EB0800B04208D83EB120684169C943A0
:102EA0004906E2D40020BDE8F08144F8305F677342
:102EB000A573206940F02000206125730120F2E70E
:102EC00070B516460D4604460DE02046FFF745FE58
:102ED00008B1012070BD681C05D0FEF769F9801BA0
:102EE000A84207D835B120684069C0430006ECD439
:102EF000002070BD002044F8300F20216173A073C2
:102F0000216941F0200121612073E2E7FEB5002430
:102F10001748009401941549029401608915816055
:102F200004730475022505614FF460214460C1619A
:102F3000FDF7C8FD10B10F4800F07CFD0126CDE97A
:102F4000004669460A480294FDF73EFD10B1094863
:102F500000F070FDCDE9006569460548FDF734FDD8
:102F6000002802D0034800F065FDFEBD00240140AA
:102F70004C0000209C09000838B51348416941F015
:102F8000010141614069124C00F0010000900F48BE
:102F90002060002080216060C4E90201206160613E
:102FA000A0618801E0612046FDF756FFA4F14000D2
:102FB00000220463606211460D20FEF765FCBDE847
:102FC00038400D20FEF752BC001002403000024095
:102FD000D00200202DE9F04186B000242C48009456
:102FE000019402940394816941F010018161816927
:102FF00001F010010491816941F020018161816932
:1030000001F020010491816941F00401816181692D
:1030100001F004010491816941F008018161806936
:103020001C4F00F00800049000220F213846FEF7E4
:10303000B9F8DFF86480002220214046FEF7B2F89C
:10304000781400901548CDE9010469463846FDF72B
:10305000B1FF0F2001250226CDE90005CDE902468A
:1030600069463846FDF7A6FF2020CDE90005CDE9E9
:10307000024669464046FDF79DFF00221146282082
:10308000FEF702FC2820FEF7F1FB06B0BDE8F08158
:103090000010024000100140000801400000111023
:1030A0000D4810B50B4901600C49416000214FF4F7
:1030B00080428160C0E9031241618161C1610162A6
:1030C000FEF77CF8002804D0BDE81040044800F06A
:1030D000B1BC10BD005400407C000020A08601005F
:1030E0009C0900080D4810B50B4901600C4941606E
:1030F00000214FF480428160C0E903124161816187
:10310000C1610162FEF75AF8002804D0BDE8104002
:10311000044800F08FBC10BD00580040D0000020D3
:10312000A08601009C09000810B596B000240F94F9
:1031300010941194129413941C2168461494FDF772
:103140001AF8202107A8FDF716F830482E4901602B
:103150001421C0E901144FF46161C0E90314446112
:103160008461FEF729FF10B1294800F063FC4FF499
:1031700080500F900FA92548FEF7A0FF10B12448FA
:1031800000F058FC2148FFF7DBF910B1204800F0AF
:1031900051FC139413A91D481494FEF7D9FE10B1E5
:1031A0001B4800F047FC6020CDE900040294039422
:1031B000049405940022694614480694FFF75DF9CB
:1031C00010B1134800F036FC042269460F48FFF79F
:1031D00054F910B10E4800F02DFC0794089409949E
:1031E0004FF400500A94CDE90B4007A907480E940C
:1031F000FEF784FE10B1064800F01CFC0348FFF700
:1032000015F916B010BD0000002C0140300100205F
:103210009C09000810B586B0002418480094019459
:103220000294039404944FF08041059401600915C1
:10323000C0E9011440F2C521C0E903148461FEF71E
:10324000BBFE10B10E4800F0F5FB4FF4805000902B
:1032500069460A48FEF732FF10B1094800F0EAFB60
:10326000049404A905480594FEF772FE002802D0D4
:10327000034800F0DFFB06B010BD0000780100201D
:103280009C09000810B58CB024216846FCF773FF38
:1032900000241748099415490A94C0E900144FF610
:1032A000FF71C0E90241046184610320CDE900049B
:1032B0000120CDE902040A210491CDE90540CDE9C0
:1032C000074169460A48FEF764FF10B1094800F05B
:1032D000B1FB099409A906480A94FEF739FE0028B3
:1032E00002D0044800F0A6FB0CB010BD0004004062
:1032F000C00100209C09000810B58CB0242168464C
:10330000FCF739FF00241748099415490A94C0E9CD
:1033100000144FF6FF71C0E902410461846103208B
:10332000CDE900040120CDE902040494CDE9054073
:10333000079469460B480894FEF72BFF10B10A4822
:1033400000F078FB099409A906480A94FEF700FEEC
:10335000002802D0044800F06DFB0CB010BD000046
:1033600000080040080200209C0900080D4810B524
:103370000B4901604FF4E1314160002181600C2272
:10338000C160C0E904128161C161FFF729FA002818
:1033900004D0BDE81040044800F04CBB10BD000054
:1033A00000440040500200209C0900080D4810B560
:1033B0000B4901604FF4E1314160002181600C2232
:1033C000C160C0E904128161C161FFF709FA0028F8
:1033D00004D0BDE81040044800F02CBB10BD000034
:1033E00000480040900200209C090008FEE770475A
:1033F000AFF300800021084600F018B83EB542F255
:1034000010748DF80400012301AA8021064800945D
:10341000FEF7BAF8012302AA802103480094FDF7C1
:1034200091FF9DF808003EBDD00000201CB502238E
:103430008DF8040042F210708DF80510009001AA7A
:1034400080210248FEF7A0F81CBD0000D00000203B
:103450007047704770B5FDF7E1F84FF066321B4BCF
:10346000FCF7DDFFFDF706F9044619486FF00B0184
:10347000FCF722FF2146FCF7E1FE4FF07E51FCF7FE
:10348000D7FEFDF7CBF80022124BFCF721FF00F02E
:103490007DFFFDF7AAF805460020FFF7AFFF0446C1
:1034A00000F07F0040F010010020FFF7BFFFE9B2FD
:1034B000FE20FFF7BBFF21460020FFF7B7FF44F0D7
:1034C000A101BDE870400020FFF7B0BF6666EE3F87
:1034D00020BCBE4B0000E03FFEF770B930B593B0A2
:1034E00028216846FCF747FE14210AA8FCF743FE92
:1034F00000250F95092000901095119512954FF415
:10350000A020CDE9010501200224CDE906040490A4
:10351000000408904FF4E01009906846FEF748FB5D
:1035200010B1104800F086FA0AA90F2081E8310096
:103530004FF48060CDE90D0502210AA8FEF74CFA90
:1035400010B1084800F076FA4FF4004011900F9443
:103550000FA8FEF7CBF9002802D0024800F06AFA63
:1035600013B030BD9C090008704700000148FEF709
:10357000AABE000078010020F0B50268164B174C77
:10358000174D4FF08047984205D0B84203D0A04273
:1035900001D0A84203D122F070064A683243984213
:1035A00005D0B84203D0A04201D0A84203D122F4F2
:1035B0004074CA6822434C6922F0800222430260B0
:1035C0008A68C2620A688262984201D1096901630D
:1035D00001214161F0BD0000002C014000040040C9
:1035E0000008004010B501F01F030121046A994052
:1035F0008C430462016A9A401143016210BD10B508
:10360000846842EA032224F47F440A43224382600E
:1036100010BD826822F070020A4342F00701816007
:103620007047000030B5026A22F001020262026AAD
:103630004368846924F073050C682C4322F002056A
:103640008A682A430A4DA8420BD122F00805CA68AD
:1036500023F440732A434D6922F004021D438B6911
:103660002B434360846149684163026230BD0000BE
:10367000002C014030B5026A22F010020262026A98
:10368000436884690D6824F4E64444EA05248D689F
:1036900022F0200242EA05120B4DA8420ED1CD685D
:1036A00022F0800242EA05124D6923F4406343EAA6
:1036B00085038D6922F0400243EA850343608461FB
:1036C00049688163026230BD002C014030B5026A56
:1036D00022F480720262036A4268C46923F40073B0
:1036E00024F073050C682C438D6843EA05230C4DC8
:1036F000A8420ED1CD6823F4006343EA05234D6947
:1037000022F4405242EA05128D6923F4806342EAB2
:1037100005124260C4614968C163036230BD0000A4
:10372000002C014030B5026A22F480520262046A21
:103730004268C3690D6823F4E64343EA05238D68B4
:1037400024F4005444EA0534064DA84204D14D69DE
:1037500022F4804242EA85124260C36149680164F2
:10376000046230BD002C014010B5036A046A24F0E5
:1037700001040462846924F0F00444EA021423F092
:103780000A020A438461026210BD10B5036A23F085
:10379000100303628369046A23F4704343EA02322C
:1037A00024F0A00343EA01118261016210BD10B54B
:1037B000406A0021C185C184FEF763FF10BD70B56A
:1037C000446A2068406994F83910C0F3C01000259D
:1037D000212904D118B1E584204600F046F820687C
:1037E000406994F83A10C0F38010222904D118B12E
:1037F000E585204600F02BF8E06B40F01000E06318
:103800002046FEF73EFF70BD10B50146406A0968CC
:103810000968890613D40021C1850168CA6822F4A9
:103820008072CA6001684A6922F001024A61016837
:103830004A6922F040024A61202180F83A10FFF7DD
:10384000D1F810BD10B5406AFFF72AF910BD016824
:10385000CA6822F49072CA6001684A6922F00102C3
:103860004A61202180F83A1070470168CA6822F046
:10387000C002CA60202180F83910704710B590F856
:103880003A10222901D0022010BD82684FF48053E3
:103890009A4201D1016921B1816A9A421BD04AB191
:1038A0000AE00268816A5268C2F308020A80816AEB
:1038B000891C08E0026972B10268526802F07F0256
:1038C0000A70816A491C8162C18D491E0904090C74
:1038D000C18503D016E002685268F1E70168CA6842
:1038E00022F02002CA600168CA6822F48072CA60AD
:1038F00001684A6922F001024A61202180F83A10E9
:10390000FFF770F8002010BD70B50446006801692B
:10391000E26821F44051114301612169A068084324
:10392000616908432168CA6841F20C639A43024303
:10393000CA6020684169A26921F440711143416164
:103940001E492068884202D1FEF7ECF801E0FEF73C
:10395000D9F800EBC00101EB00126068642180001F
:10396000B2FBF0F3B3FBF1F36FF018067343B2FB55
:10397000F0F5B2FBF0F605EB8305322303EB0515FA
:10398000B5FBF1F5B6FBF1F605F0F00505EB061514
:10399000B2FBF0F6B2FBF0F0B0FBF1F06FF0180202
:1039A000504306EB800003EB0010B0FBF1F0216800
:1039B00000F00F002844886070BD0000003801400E
:1039C0002DE9F041984617460E460446069D1DE037
:1039D000681C1BD02DB1FDF7EBFBA0EB0800A84243
:1039E00014D92068C16821F4D071C1602068416990
:1039F00021F001014161202084F8390084F83A0067
:103A0000002084F838000320BDE8F08120680068B9
:103A100036EA000004D00020B842D9D00020F3E7F5
:103A20000120F9E70148FEF72DBE000090020020BA
:103A3000FEE700000FB4054B10B503A9044A029835
:103A400000F0EAF810BC5DF814FB000069440008BF
:103A5000280000200907090E002804DB00F1E020FF
:103A600080F80014704700F00F0000F1E02080F8AB
:103A7000141D704702E008C8121F08C1002AFAD1BD
:103A800070477047002001E001C1121F002AFBD1DE
:103A9000704700002DE9FF5F82B00021DDE90430AE
:103AA000020DDDF840B0034318D044F61050A2F2E6
:103AB000FF3242431514119801281FD0A5EB0B00CB
:103AC000401C5FEA000A4FF000064E4FDFF83891C5
:103AD000B046504615D5CAF1000413E011980124F0
:103AE0004AA3012801D16FEA0B010298119AC0E99B
:103AF0000031C0E9024206B0BDE8F09FCBF1000002
:103B0000DFE704460021404A491842EB0450CDE962
:103B1000001012E0E00707D032463B4640464946D7
:103B2000FCF77DFC8046894632463B4610461946E6
:103B3000FCF775FC06460F466410002CEAD1DDE95F
:103B40000401DDE90023BAF1000F06DAFCF767FC97
:103B500042464B46FCF763FC05E0FCF7D2FC4246CC
:103B60004B46FCF7CEFC04460E460022284BFCF7E1
:103B700069FD03D84FF0FF30014607E00022254BD6
:103B800020463146FCF7A4FBFCF78CFE102409E02C
:103B9000002C0ADB0A220023FCF79EFD039B303237
:103BA0001A55641E50EA0102F2D1641C039AC4F152
:103BB00011031444119A012A03D0012208430DD1A4
:103BC0000AE0084304D000204FF0110B119072E777
:103BD000A3EB0B056D1E0DE05B4504DD4FF000020D
:103BE00005F1010504E003DA4FF00002A5F101053B
:103BF000002AECD002981199C0E90231C0E90045D1
:103C000079E70000000014400000F03F30000000A1
:103C10000000F0430000E03F2DE9FF4F95B09B46C8
:103C20008946064600250FE2252877D1002427463D
:103C3000F84A0121059400E0044316F8013F203BB7
:103C400001FA03F01042F7D130782A2811D06FF032
:103C50002F033078A0F13002092A16D8059A44F0D3
:103C6000020402EB820203EB42021044761C059030
:103C7000EFE759F8042B0592002A03DA504244F486
:103C80000054059044F00204761C30782E2816D19A
:103C900016F8010F44F004042A280DD06FF02F020B
:103CA0003078A0F13003092B09D807EB870302EB2A
:103CB0004303C718761CF3E759F8047B761C307869
:103CC0006C280FD006DC4C2817D068280DD06A2845
:103CD00014D104E0742810D07A280FD10DE044F4F8
:103CE00000140AE044F4801401E044F440147278B3
:103CF000824202D104F58014761C761C3078662846
:103D00000BD013DC582877D009DC002875D0452863
:103D1000F6D04628F4D047281AD19DE118E0632850
:103D200035D0642879D0652812D195E1702873D0F8
:103D300008DC6728F1D069286FD06E280DD06F2875
:103D400006D1B5E073282CD0752875D0782874D0AA
:103D50005A46179990476D1C75E1C4F3025002282A
:103D600009D003280DD0D9F8001004280DD00D601B
:103D700009F1040967E1D9F80010EA17C1E9005216
:103D8000F6E7D9F800100D80F2E70D70F0E719F8AA
:103D9000041B8DF8001000208DF80100EA46012078
:103DA00003E059F804AB4FF0FF3061074FF000011A
:103DB00002D40DE008F101018846B9420FDA8045CE
:103DC000F8DB1AF808100029F4D108E008F1010125
:103DD00088468142FADB1AF808100029F6D10598C6
:103DE0005B46A0EB080721463846179A00F094FA84
:103DF000284400EB080507E04DE029E10DE01AF842
:103E0000010B5A4617999047B8F10108F7D25B4663
:103E100021463846179A13E142E00A220092C4F381
:103E200002524FF0000A022A08D059F804CB032AA4
:103E30004FEAEC710AD00DE029E02AE009F1070110
:103E400021F00702F2E802C1914609E00FFA8CFC6A
:103E50004FEAEC71042A03D14FFA8CFC4FEAEC7163
:103E6000002907DA0A460021DCF1000C61EB0201AF
:103E70002D2202E0220504D52B228DF804200122F8
:103E800003E0E20701D02022F7E7904659E00A213B
:103E900002E010220DE010214FF0000A00910BE02B
:103EA00010224FF0000A44F004040827009203E0B7
:103EB00008224FF0000A0092C4F30252022A05D0F1
:103EC00059F804CB0021032A08D009E009F10701C1
:103ED00021F00702F2E802C1914605E01FFA8CFCCE
:103EE000042A01D10CF0FF0C4FF00008220728D55E
:103EF000702806D0009B83F0100353EA0A0305D014
:103F00000EE040228DF80420012208E05CEA010264
:103F100006D030228DF804208DF80500022290464C
:103F2000009B83F0080353EA0A030AD15CEA01020A
:103F300001D1620705D530228DF804204FF0010829
:103F40007F1E582804D034A003900EA802900DE0E4
:103F500036A0F9E753466046009AFCF7BDFB84465D
:103F60000398825C0298401E029002705CEA010095
:103F7000F0D1029806A9081A00F1200A600702D5BC
:103F800024F4803400E00127574502DDA7EB0A0046
:103F900000E0002000EB0A01009005984144401A1F
:103FA0000590E00306D45B462146179A059800F079
:103FB000B3F90544002706E001A85A46C05D1799E9
:103FC00090476D1C7F1C4745F6DBE0030CD55B4634
:103FD0002146179A059800F09FF9054404E0302027
:103FE0005A46179990476D1C0099481E0090002969
:103FF000F5DC08E0029802995A460078491C0291C3
:10400000179990476D1CBAF10001AAF1010AF1DC81
:1040100065E100000928010030313233343536378C
:104020003839616263646566000000003031323304
:1040300034353637383941424344454600000000A4
:1040400000F058F90544761C307800287FF4ECAD78
:1040500019B02846BDE8F08F620700D4062709F1A1
:10406000070222F0070CFCE80223E14603F00048B7
:104070005FEA080C02D00FF2702C0DE05FEA045CDE
:1040800002D50FF2682C07E05FEAC47C02D00FF281
:10409000602C01E0AFF2700C4FF0FF3823F00043CA
:1040A000CDF850C065280CD006DC452809D046283C
:1040B0001DD047283DD13DE0662818D067287ED125
:1040C00038E00021112F01DB112000E0781CCDE940
:1040D000000106A90EA8FFF7DDFCDDE90F010E9A2D
:1040E00003910021009207F1010A04914DE04FF085
:1040F00000400097CDE9011006A90EA8FFF7CAFC01
:10410000DDE90F0203920E9B11990022DDF80CA04D
:104110000093049211B9791C00EB010AB7EB0A0075
:1041200004D4C0F1FF3007F1010A0490AAEB0700A4
:10413000019044E0012F00DA01270021112F01DD59
:10414000112000E03846CDE9000106A90EA8FFF7CE
:10415000A1FCDDE90F010E9A039100210491009268
:10416000BA4621070CD40399514500DA8A46BAF1C0
:10417000010F05DD009AAAF10101515C302908D038
:10418000B84202DA10F1040F06DA0121CDE901107C
:1041900015E0AAF10101E9E7002805DC04990144D2
:1041A0000491AAEB000102E0411C514500DD8A4662
:1041B0000499401A401C01904FF0004002902007E3
:1041C00004D40198504501DBCDF8048000208DF81F
:1041D0004F0002980DF14F07B0F1004F25D02B2072
:1041E0000E9002984FF0020800280CDA404202902C
:1041F0002D200E9007E00A210298FCF757FA303183
:10420000029007F8011DB8F10001A8F10108F2DCE5
:1042100002980028EFD1791E0E980870307800F0CF
:10422000200040F0450007F8020D12A8C01B00F165
:1042300007081498007800B1012000EB0A010198EA
:1042400001EBE07105984144401A401E0590E003DF
:1042500006D45B462146179A059800F05DF80544A0
:104260001498007818B15A46179990476D1CE003CE
:1042700024D55B462146179A059800F04DF8054471
:104280001CE00498002807DBDDE90301884203DD18
:104290000098405C179901E0179930205A469047E2
:1042A000049805F10105401C04900198401E0190FE
:1042B00004D12E205A46179990476D1CBAF100017F
:1042C000AAF1010ADDDC05E017F8010B5A4617993F
:1042D00090476D1CB8F10001A8F10108F4DC5B46C1
:1042E0002146179A0598ABE62D0000002B00000030
:1042F000200000002DE9F041044600251E46174627
:10430000880404D405E039462020B0476D1C641EA3
:10431000F9D52846BDE8F0812DE9F0410446002595
:104320001E469046C80301D5302700E020278804A8
:1043300004D505E041463846B0476D1C641EF9D5EA
:104340002846BDE8F0814FF4616148436421B0FB29
:10435000F1F0704710B5FCF743F90849FBF76EFF21
:10436000FCF75CF90022064BFBF7B2FF054A064B4F
:10437000FCF755F8FCF739F980B210BD0000B442E3
:104380000000E03F9A999999999969402DE9F04187
:10439000C1F30A52A2F2FF362F4A304B0D460446B3
:1043A000142E2FDA002E12DAFBF792FF00221346AA
:1043B000FCF748F94CD2002DA4BF0024254647DA6B
:1043C00025F00040204318BF254D41D018E0DFF80C
:1043D00094C02CFA06F705EA070C5CEA040C08BF47
:1043E000BDE8F081FBF774FF00221346FCF72AF9C1
:1043F0002ED2002D03DA4FF48010F0400544BD4367
:10440000002425E0332EC8BFBDE8F081A6F1140CCE
:104410004FF0FF3727FA0CF73C4208BFBDE8F081A8
:10442000FBF7FAFF00221346FCF70CF910D2002D1F
:104430000DDA142E08BF6D1C09D0C6F1340001211D
:1044400001FA00F02044A04238BF6D1C0446BC4372
:1044500029462046BDE8F0819C7500883CE4377E03
:104460000000F0BFFFFF0F0013B54FF6FF730122EE
:1044700069460248FEF716FB00981CBD500200205A
:1044800070B52FA0FFF7D6FA3A4C3BA02178FFF782
:10449000D1FA6078642130384843A1783A4D3039F8
:1044A00001EB81014A00E178104430390144E960B0
:1044B0006079642230385043A279303A02EB8202AC
:1044C0005300E2791844303A10442861607A64223B
:1044D00030385043A27A303A02EB82025300E27A3B
:1044E0001844303A1044686128A0FFF7A3FAD5E9D0
:1044F00004122CA0FFF79EFA207B4C280AD05228E9
:1045000015D0532802D0582809D114E00020687033
:104510002EA002E00120687032A0FFF78BFA37A0CE
:10452000FFF788FABDE8704042A0FFF783BA022087
:10453000687041A0F1E70320687046A0EDE7000035
:104540003C2D2D2D2D2D2D2D2D2D2D2D2D2D2D2D8C
:10455000475055204D534720427265616B646F7719
:104560006E2D2D2D2D2D2D2D2D2D2D2D2D2D2D2D3A
:104570003E0D0A003B0000204D5347204865616412
:1045800065723A25630D0A00000000204C616E65DB
:104590002044697374616E6365284C4853293A2539
:1045A000640D0A00546172676574204F626A656326
:1045B0007420436F6F7264696E616765733A583D2A
:1045C00025647C593D25640D0A0000005472616623
:1045D00066696320537461747573203D2053544F92
:1045E000500D0A00547261666669632053746174E9
:1045F0007573203D204C4546540D0A003C2D2D2D51
:104600002D2D2D2D2D2D2D2D2D2D2D2D2D2D2D2DDA
:104610002D2D2D444F4E452D2D2D2D2D2D2D2D2D58
:104620002D2D2D2D2D2D2D2D2D2D2D2D2D3E0D0AEC
:10463000000000000D0A0000547261666669632084
:10464000537461747573203D2052494748540D0AD4
:1046500000000000547261666669632053746174DF
:104660007573203D20554E4B4F574E0D0A000000EC
:10467000FDF7ACF8FEF732FFFEF7ACFCFEF77CFC72
:10468000FEF774FEFEF72EFDFEF7C4FDFEF7FAFD01
:10469000FEF732FEFEF78AFEFEF746FD234822496A
:1046A00001600321416040F6FF718160FDF756F81B
:1046B00010B11F48FFF7BEF9FEF728FCFEF7F0FC2B
:1046C0001CA0FFF7B7F923A0FFF7B4F917490F2291
:1046D000F83901F51970FEF739F914485430FDF72F
:1046E000C1FC124800210C30FDF75AFF0F4804218D
:1046F0000C30FDF755FFFEF77BFE1F48FEF7AAFEC4
:104700000020FFF727FE0146002000F06FF8C820C8
:10471000FCF708FC19A0FFF78DF91E2000F03EF809
:104720000248FDF744F8F8E700300040240100207B
:104730009C0900085B53595354454D5D2048756DE5
:10474000616E652048656C702053544152542E2E82
:104750002E0D0A005B53595354454D5D20436F6E37
:104760006E656374696E6720746F204D50553630E6
:1047700035302E2E2E0D0A00000048425B5359534F
:1047800054454D5D204D50553630353020436F6EC9
:104790006E65637465642E2E2E0D0A0070B5114E81
:1047A0000446012211463046FCF7FCFC002202219F
:1047B0003046FCF7F7FCE0B2FFF7C5FD0A4D29686B
:1047C0004863012204213046FCF7ECFC002208215A
:1047D0003046FCF7E7FCE0B2FFF7B5FD29688863D7
:1047E00070BD0000001001403001002070B504468B
:1047F00006200D4600EB8400C0B20021FEF716FE35
:10480000072000EB8400C0B20021FEF70FFE082055
:1048100000EB8400E9B2C0B2FEF708FE092000EB0D
:104820008400C5F30721BDE87040C0B2FEF7FEBDAD
:104830000000000000000000010203040607080950
:104840000000000001020304684800080000002086
:104850002C000000743A0008944800082C00002046
:104860002C070000843A000800030001000000004B
:104870000000000000000000000000000000000038
:104880000100000010000000000000000024F400FF
:044890000000000024
:04000005080000ED02
:00000001FF
